:10F0000038B504460D460DF0BDFC08482168016086
:10F0100061684160A16881600DF026FB0CF09DF8ED
:10F020002846BDE8324003F08ABA00BF30480020CD
:10F03000DFF8481C0870704738B5DFF8444CDFF83B
:10F04000445C20762878C00000F0C4FFE061C8B1BD
:10F05000002108E04FF6FF7220F8312000EBC103D9
:10F0600000225A60491C2A789142F3DB052000F007
:10F07000AEF8207E01F06DF8BDE83240DFF8080CF4
:10F0800001F0DABC31BD38B50C46200418D5DFF8E4
:10F09000F00B007E01F0D9FE05000ED02878B028D4
:10F0A00008D1284600F0FAF820B1297905F10800C6
:10F0B00002F0B4FA284601F05BFE84F4004032BD51
:10F0C000002032BD7CB504001D460CD0ADF8001008
:10F0D0008DF80220019400A800F0CFFF060019D19E
:10F0E000C5B164890CB9022614E00C2000F072FF4F
:10F0F00008B913260EE00021016084808560DFF8E6
:10F100008C1B0A6812B9086004E00A4611680029DD
:10F11000FBD11060304676BD30B50D46DFF86C1B74
:10F120000446086883B0002201E00246006890B1FE
:10F130008388A342F9D10368002A0CBF0B601360D7
:10F1400000F055FF00A9204600F0E3FF10B90DB113
:10F15000019929603EBD01203EBD70B558BB012913
:10F1600027D1DFF81C0BC16900230C2601E05B1CD2
:10F17000DBB2DFF8104B2478A34216DA31F83340C3
:10F180004FF6FF75AC42F2D0002400E0641C457ECF
:10F19000E4B2AC42EBD201EBC3056D6806FB04554B
:10F1A0002D88002DF2D0012070BDBDE87040107890
:10F1B0000DE0182070BD022070BD0022002803BFA2
:10F1C000DFF8BC0A407E08700222104670472DE925
:10F1D000F843DFF8AC7A0446002078760C25F8690D
:10F1E000DFF8A06A406805FB04F868B100F0FFFE94
:10F1F0000020002204E0F96901EBC001401C4A60D4
:10F20000C0B231788842F6D3307808FB00F080B283
:10F2100000F0E0FE5FEA000927D0307808FB00F23A
:10F220000021484601F075FD00200FE0516805FB04
:10F230000CF34FF0000E23F801E059180CF1010C0B
:10F24000C1F808E0A445F1DBC144401C3178C0B2EC
:10F25000884207D2F96901EBC0024FF0000CC2F8F6
:10F260000490EFE77C76002000E01320BDE8F283F5
:10F2700001460020C90705D5002310220121DFF82F
:10F280000C0D1FE77047DFF8041A096821B18A885E
:10F290008242FAD188687047002070472DE9F04318
:10F2A00087B004460020ADF8100001208DF8120050
:10F2B000DFF8CC59286A38B902F050FA00F08AFE1B
:10F2C0000028286200F0E48018220021284601F07E
:10F2D00020FD2079022800F1010804F108074FF60B
:10F2E000FF7917D006282CD008282FD00A2832D032
:10F2F0000C2855D00E2800F08880102800F08A8055
:10F30000122800F08C80162800F09080182800F059
:10F310009480BAE002F022FA28802946608802F040
:10F320003BFA00283988288804D0814228BF01464A
:10F3300029809DE0814228BF0146608802F0DBF809
:10F34000A3E004A9204600F0ADF87AE004A9204625
:10F3500000F02FF975E000F0A0F8060050D06088AA
:10F3600005AB4A460B2102F01DF903006B6023D068
:10F370002079BDF81620039000953146BDF81400A1
:10F3800000F0A1F900F026FA060004D160882946B1
:10F3900002F04CFA29E0162E686808BF00262BE020
:10F3A00000F07BF806002BD0608805AB4A460D21A3
:10F3B00002F0F8F8686020B93888ADF8100011261E
:10F3C00043E02179BDF8162003910346BDF81410DF
:10F3D0000291798801910095314600F0FBF9060011
:10F3E00006D16088294602F02FFA002840D129E092
:10F3F000162E686808BF002602F0CFFA0EB921E089
:10F4000001263888ADF810001CE004A9204600F061
:10F410005EF916E004A9204600F0E3F911E00DF1D1
:10F42000120204A9204600F07EFA0AE00DF1120251
:10F4300004A9204600F0BFFA03E004A9204600F02A
:10F4400028FB064696B1162E12D0607814280DD0EF
:10F45000207928702946BDF8100068802E716088D8
:10F4600002F091F910B14FF0010801E0162E0CD115
:10F4700060882B465FFA88F2162102F032F820B13C
:10F480005FFA88F1284602F0C9F8204601F060FFD3
:10F490009DF8120007B0BDE8F08338880DF1160121
:10F4A00000F0CDBE2DE9FA4786B0044604F1080508
:10F4B00000F034FA05906A1D0DF1120000902B79CE
:10F4C0006988288800F08DFE002780464FF0FF0AEB
:10F4D000B8F1000F5BD009E0BDF810300B54BDF857
:10F4E0001000716892B2000A5054571C0598BFB2C0
:10F4F000401F87424BDA2079BDF8122003904FF06D
:10F5000000090598CDF80490C01F80B202904146D2
:10F5100000F05CF9002802BF728B2889904214D158
:10F52000316AE86801F0E7FB78B1706858B900F01B
:10F5300048F9072102F036F8706020B9069928884A
:10F540000880112032E0B8F80A90BDF812206988CE
:10F5500004AB404600F097FEB9F1000F8046B7D0EB
:10F56000706807F80090781C726880B24FEA292111
:10F570008154411C4A1C7068B8F1000F89B2ABD1AC
:10F5800001F800A092B2706802F800A0571CBFB248
:10F5900047B1B80830803146608802F021F928B1BF
:10F5A000162003E00699288808800A2008B0BDE8E4
:10F5B000F0872DE9F04F89B0044604F1080005906A
:10F5C0008A4606886088DFF8B85602F0EDFB07909F
:10F5D0000027001FB84606904FF6FF7900E0761C22
:10F5E0000698B84257DB04A8009005980379418833
:10F5F000421DB0B200F0F5FD5FEA000B4BD0BBF846
:10F600000A60BDF810209BF80810608800F0A5FD86
:10F610005FEA00083FD100F0DFF859460798001F65
:10F6200000F050F805F11A0000902B6A00F0D2F8B3
:10F630005FEA00082FD17FB9608800234A4609217C
:10F6400001F0B0FF686018B9AAF80060112036E038
:10F65000688B801C688004E0698B6888891C8842FC
:10F660001AD1698B0698C919884214DB6968BBF8FE
:10F670000A007854BBF80A106A6800F049F9686813
:10F680006A8B296ABFB2381801F011FB688BC71961
:10F690004E45BFB2A3D157B1688897FBF0F02880E0
:10F6A0002946608802F0ACF848B1162007E0B8F1AE
:10F6B000000F08BF4FF00A08AAF80060404609B0E2
:10F6C000BDE8F08F80B202900020019070472DE9D4
:10F6D000F04F85B00D46044604F108066088DFF857
:10F6E000A07502F061FB4FF0000BA0F10108A0F142
:10F6F000010A16E039887A8B084612189245BCBF79
:10F70000A8EB010179837B687A8B396AC01801F014
:10F71000CEFA3888798B081838800BF101001FFA6F
:10F7200080FBB0888345BCBF3888504537DA3068E5
:10F7300010F81B2000EB4B0004A9407802EB0020DE
:10F7400080B200F07CFD01000BD14FF0010900F008
:10F750002EF8786808B102F020F9484605B0BDE8F7
:10F76000F08F00F039F81FFA88F0FFF7ACFF07F1CF
:10F770001A0000903B6A00F02DF85FEA0009E6D11C
:10F7800078680028B6D100F01CF80F2101F00AFFBC
:10F7900000287860AED100F00AF81120DEE760881A
:10F7A000394602F05FF80028D8D01620D6E7306836
:10F7B00010F81B1000EB4B00407801EB0020288074
:10F7C0007047608800234FF6FF72704706F11A00F9
:10F7D0000090336A608861E22079BDF810200390C0
:10F7E00070472DE9F04786B08846044604F10809C1
:10F7F00000F094F8059009F1050204A8009099F82A
:10F800000430B9F80210B9F8000000F0EAFC002753
:10F81000BA4605460FE07268FF21B95480B272689B
:10F820008154471C7068728B316ABFB2381801F07E
:10F830003EFA708BC719BFB2BDB1BDF81020297A4E
:10F84000608800F08AFC5FEA000A0BD1FFF7C4FF72
:10F8500029460598801FFFF735FFFFF7B7FF5FEADE
:10F86000000A10D06889A8F80000002F43D07088E3
:10F8700097FBF0F030803146608802F002F80028F3
:10F8800043D0162041E07FB9FFF79BFF112101F023
:10F8900089FE706020B96889A8F80000112034E062
:10F8A000708B001D708009E0708B7188021D914281
:10F8B000DDD10599891FC0198142D8DB716868893B
:10F8C00078546989726800F023F8BDF81020B9F8FF
:10F8D00002100DF11203284600F0D5FC0546781CF5
:10F8E000002DBFB297D07268BDF81210B954BDF8A0
:10F8F0001210090A92E7B9F80000A8F80000BAF15E
:10F90000000F08BF4FF00A0A504606B0BDE8F08766
:10F91000781C80B2090A8154471C70476088DFF860
:10F92000606302F041BA2DE9F041044604F1080792
:10F9300084B00D463888904602A900F080FC06008D
:10F940002FD0307A80060BD5BDF8080000F0A0F962
:10F9500003000BD06088122231469847060021D15F
:10F96000787A002814BF5220207901E00E2619E091
:10F970000190002000907B887A683988608800F0C8
:10F9800087FA060007D1787A70B9608801F08AFF9B
:10F9900050B116200CE0162E04D1002688F8006025
:10F9A00002E0012638882880787A00B100263046A7
:10F9B00004B0BDE8F0812DE9F84389469046012165
:10F9C000044604F10806608801F0BAF8002718B967
:10F9D000142060700E205AE0308800A900F02FFC3F
:10F9E00005004FD0287A80060BD5BDF8000000F046
:10F9F0004FF9030015D06088122229469847070066
:10FA000041D16588284600F006F9010006D14FF67D
:10FA1000FF7000F000F9010030D00D800022984DF9
:10FA200002E00E272FE0521C687ED2B2824225D21D
:10FA300048680C2303FB02000388002BF3D10C223F
:10FA4000314601F034F9002088F800000C223146DC
:10FA5000284601F02CF9B28860880023172101F0B4
:10FA6000A1FDA86060B1B288B16801F020F960889A
:10FA7000294601F01DFF48B1162008E0092702E0E1
:10FA8000112700E001273088A9F800003846BDE8BA
:10FA9000F2832DE9F04383B089460027044604F140
:10FAA0000805608800F0B7F85FEA00084AD02878B7
:10FAB000012843D14146284600F050F8A0B1D8F8BB
:10FAC00004501820019068880090AB88AA682988A3
:10FAD000608800F0DDF90746162F02D10020A860EB
:10FAE0002CE05FB3288827E000250EE001907088A5
:10FAF0000090B388B268608800F0CAF90746162FF4
:10FB000017D10020B0606D1CEDB25D48407E85428B
:10FB100014DAD8F804100C2202FB051216463188BC
:10FB200061B16B1C83421DBF9089002816201820EC
:10FB3000DCE7002FE7D03088A9F80000404600F04D
:10FB40007DF82FB9608801F0C0FE20B1162003E0D7
:10FB5000162F08BF00273846BDE8FE832DE9F84F71
:10FB60000C46002100250E464FF00C0B44480EE0D9
:10FB7000994202BFBCF8027093B2BB4224D1BCF8D8
:10FB800004305D19ADB29A18761C92B2F6B2437E7B
:10FB90009E420EDA63680BFB063CBCF8003043B1B2
:10FBA0000029E5D1BCF80450BCF802201946AA1877
:10FBB000EAE7022E2CDB28004FF0000904D001F008
:10FBC000D5FE5FEA000801D1002022E0CA4619E014
:10FBD0000BFB0A07B96859B1BA8809EB080001F0B4
:10FBE00066F8B88848441FFA80F9B86801F0D5FE75
:10FBF000BAF1000F04D00C220021384601F089F838
:10FC00000AF1010AB2456068E2DBC0F8088085802D
:10FC10000120BDE8F28F1A4AD269002100E0491C98
:10FC2000184B1B78C9B2994206D232F83130834260
:10FC3000F5D102EBC10070470020704770B5044653
:10FC400000250BE0B06808B101F0A7FE0C220021EE
:10FC5000304601F05EF8002030806D1C0848407E80
:10FC6000EDB2854206D260680C2101FB05063088A2
:10FC70000028E7D14FF6FF70208070BDA24600201B
:10FC8000D44700206C47002037FF00009C4800202C
:10FC900080B5FFF7F8FA00B1806802BD2DE9FE4F8C
:10FCA0000D468046287AC00693461E464FF0000A4D
:10FCB0000CD55846FFF7ECFF030000F0E4800A2261
:10FCC0002946404698475FEA000A49D128780C9FA8
:10FCD0000D9CDDF83890022816D100F016F94FF48B
:10FCE0002051401A012810D9801E3AD0401E14D04D
:10FCF000FD3876D0401E00F07D80401E6AD0401E48
:10FD00006FD0401E00F09180A7E0002C2AD1E86857
:10FD1000017839800278416883E0002C22D10120EB
:10FD200038800021E868007830706889401C80B213
:10FD300000F085FA398860B10278921C5118398038
:10FD4000418971704189090AB17002784168F01CDB
:10FD500068E0081D388004220021701C00F0D9FFE3
:10FD600093E0002C62D1E868048804203880347065
:10FD7000200A70700DF10201204600F060FA0500C3
:10FD80001ED0EC68BDF802204FF6FF7800AB41466C
:10FD900000F079FA40B92B786A688B48022101F0AB
:10FDA000B2FF08B9ADF80080207802280AD1616856
:10FDB0000222301D00F07BFF3888801C388001E073
:10FDC000ADF80040BDF80000B070BDF80000000ABA
:10FDD000F0705AE054BBE8680168404602F016F83B
:10FDE00002E01CBBE8680088022139803070000AFC
:10FDF00070704AE0E86800F058FF82B2A242B8BFD3
:10FE00004FF0070A41DB944208BF002206D009EBFD
:10FE100004019142B2BF4A46121B92B23A80E9688D
:10FE20006118304600F043FF2FE014B14FF00B0A89
:10FE30002BE0E868072139800178317041787170D2
:10FE40004188B1704188090AF17001793171C18826
:10FE50007171C088000AB07117E05846FFF713FAB5
:10FE600000281CBFD0F800C0BCF1000F0BD00F98C9
:10FE70000290CDF8049000943B4632462946404615
:10FE8000E047824601E04FF00E0A5046BDE8FE8F83
:10FE90002DE9FE438046894617461E4602A948467C
:10FEA00000F0CDF905002CD0BDF80800FFF7EBF904
:10FEB00000281CBFD0F804C0BCF1000F1FD00A9866
:10FEC0000B9C0090019433463A4629464046E04751
:10FED000060017D1FE2C15D02878022812D100F088
:10FEE00014F842F6021188420CD13878797800EB88
:10FEF000012292B24946404600F04AF802E00E263E
:10FF000000E001263046BDE8FE836868017840784D
:10FF100001EB002080B27047E0B58DF80820022385
:10FF2000120A8DF80920FE2201920022009202AAF4
:10FF3000FFF7AEFF0EBD7CB50129044605D00229AE
:10FF400022D1012100F0FCFDF0B92046FFF763FE4D
:10FF500008B1FFF773FE01A800904FF6FF7502236A
:10FF60001A4A2946012000F03CF90BE0F0680168CC
:10FF7000204601F031FFBDF8042000232946304619
:10FF800000F081F90600F1D173BD0000904500201A
:10FF9000F8B50F4F04463878FF280D46164611D0A5
:10FFA0000A2000F0D3FE68B1B12101704480002125
:10FFB00041700171C580068101463878BDE8F44082
:10FFC00000F0E5BEF1BD0000B8C90100C0C90100E4
:10FFD000A2460020E0B50821ADF8001001900421F0
:10FFE00000F00FF8002814BF002002980EBD00B5E5
:10FFF00083B00821ADF800100190052100F001F850
:020000040001F9
:1000000007BDADF8021068460149096808470000BD
:100010003048002070B5DFF858592878062460432E
:10002000FFF7D8FFDFF84C19086008B9132070BD3E
:100030000020FF2206E03380401C0023F270B270E3
:100040003371C0B22B78984209DA0B6804FB003692
:1000500000280CBF4FF6FE734FF6FF73EBE70FF26D
:10006000314001F069F90FF6390001F089FB0FF614
:10007000790000F0E1FC002070BD70B504462088D6
:1000800068B160680378426800F03AF948B960687E
:1000900003784268DFF8E00800F034F908B902207C
:1000A00070BDA078C01F0A2801D3182070BDDFF8EA
:1000B000CC58288820B12188C0F58030884201DAE8
:1000C000012070BD0C20FFF785FF060001D1132031
:1000D00070BD002007E06268298802EB0012401C16
:1000E0005181491C298080B221888842F3D30020A5
:1000F000306008222146301D00F0D9FD686810B933
:100100006E6004E0084601680029FBD1066000200B
:1001100070BD38B502460846DFF860184C68002309
:1001200001E02346246894B1A5686D899542F8D111
:100130002268002B0CBF4A601A6018B10822211DEA
:1001400000F0B5FD2046FFF752FF002032BD012030
:1001500032BDDFF82C180870704710B50446104601
:100160001422114203D000F0D6F8012204E04A061E
:1001700008D500F0D0F8002201462046BDE8104026
:1001800000F01FBDC80701D4022010BD002010BD23
:1001900070B504460D46A8061E4609D5104600F067
:1001A000BAF801462046BDE87040012200F009BDC2
:1001B000882005420FD0104600F0ADF8014605F04A
:1001C0000802204600F0FDFC48B1717A41B1317A55
:1001D000012904D070BDA80701D4032070BD002000
:1001E00070BD2DE9F0478146DFF8900744688A46E4
:1001F00090461E4600E02468F4B1002700E07F1C12
:10020000A088BFB28742F6D2A06800EB07156889C4
:10021000484528BF8245F2D33EB129786868334605
:10022000424601F070FD0028E9D0089810B1A1689D
:1002300049890180284600E00020BDE8F087F0B53C
:10024000DFF83827536800E01B68D3B19D686E89DA
:10025000B042F9DB9F88BA199042F5DA4FF0000CF2
:1002600001E004F1010C1FFA8CF4BC42ECD205EB66
:100270000412B2F80AE08645F3D101B10E801046AF
:10028000F0BD0020F0BD2DE9FC4104460027ADF88B
:1002900004704FF6FF786089404515461E4608D029
:1002A00001AA0092401C2378626880B2FFF799FF90
:1002B00007462378626800F023F830B92378626833
:1002C000DFF8B40600F01EF808B160890CE023786E
:1002D0006268DFF8B00600F015F858B11FB1BDF83C
:1002E0000400A84203D0284600F0C7F803E078894C
:1002F000404400E0608906B130803846BDE8F681B0
:10030000DFF88406022101F0FEBC80B500F08BFA14
:1003100000B1008802BD80B500F085FA08B1807890
:1003200002BD102002BD70B5012982B004461546F9
:1003300016D0032918D0052925D0072927D0092947
:1003400029D00B292BD00D292DD00F292FD01129E1
:1003500031D0132933D0172934D0192936D039E0B8
:10036000294601F010FA33E001F0F8F9ADF8000089
:1003700000A9204601F010FA06002CD12988204659
:1003800001F0B9F827E0294601F012FA20E02946E9
:1003900001F026FA1CE0294601F032FA18E029465D
:1003A00001F044FA14E0294601F04EFA10E0294623
:1003B00001F058FA0CE0294601F063FA08E001F078
:1003C00071FA05E0294601F073FA01E001F07DFAC7
:1003D000064600E00226304676BD2DE9FC410D467A
:1003E000044616461F4601A900F02AFA5FEA0008F3
:1003F0001DD156B100F037F8BDF80000FFF78BFFB4
:1004000000F036F85FEA000811D12946204601F0D5
:100410006DFA5FEA00080AD1019CFF2F07D0A31CE8
:100420001E2221460FF2954001F047F8E770404642
:10043000BDE8F6817CB50D460446164601A900F0DC
:10044000FFF917280ED04EB1002000F00CF8BDF8CF
:100450000000FFF760FF00F00BF818B929462046AE
:1004600001F039FA76BDADF8000000A92888E6E66B
:1004700001460122204600F0A4BB10B50446FFF758
:1004800044FF08B1611E0C18A0B210BD00000000AE
:100490002DE9F0470D468046A87800241E2888B034
:1004A000914614D1404600F0DFF904001EBFA07849
:1004B000FE28FF2822D0002000900022AB78E078B0
:1004C000414600F0CFFF204600F0E2F916E0122886
:1004D00004BF6878012813D0404600F0C5F9040035
:1004E0001CBF2279002A0BD0100607D4A9784046F9
:1004F00001F014F8207940F08000207100206BE0BA
:10050000DFF87C743878FF2817D0A978881E172860
:1005100013D20FF2784A48080AEBC000A0F108068F
:10052000306800281CBF7068002806D0287810B9F1
:100530006A78012A03D1122901D006204CE002A9D1
:100540000091AB88AA6869783668B047060042D146
:10055000AA7852080AEBC20202A952F8042C4046BB
:10056000904706001CD1AB78042B34D002A8009031
:1005700000223878414600F075FF06002BD1A9789B
:1005800002A800F0E5FF10B1002089F80000A8786B
:10059000122804BF697801291DD0E4B120711AE046
:1005A0006878C0B9A8788DF800008DF8046000A9BB
:1005B000A878042818BF0628BDF80800ADF8020086
:1005C000404601F0E0F828B100AB01221621404678
:1005D00000F087FF0026304608B0BDE8F087002015
:1005E00070472DE9FE430D46804628886988814280
:1005F00000D308B901206AE00021ADF8041002918F
:100600004FF6FF7900E0401C002100910A466988FE
:10061000002380B2FFF7E5FD070034D0BDF80400E9
:10062000002835D100AB4A460521404600F0BAFF0C
:10063000040001D111204AE002943878022806D142
:1006400001208DF80600BDF80000860824E0022095
:100650008DF806001221BDF8000090FBF1F67889B4
:1006600004F8010B102200F034F81034BDF8040037
:10067000401CADF80400B6B2BDF80400B04202D28E
:1006800078894845BFD1BDF8040080B90A201EE032
:100690009DF806000128E2D138780228F3D1788944
:1006A00004F8010B022200F014F8A41CDEE701A9F3
:1006B000404601F07DF848B101AB052216214046C5
:1006C00000F00FFF10B1029801F067F90020BDE8BB
:1006D000FE837889000A04F8010B2046796800F04F
:1006E000E6BA10B582B04C880888844200D308B9B5
:1006F000012016BD00F015F808B90A2016BD00202B
:1007000016BD10B582B04C880888844200D308B961
:10071000012016BD00F005F808B90A2016BD00201A
:1007200016BD002200924A1D0B79214659E510B5ED
:10073000044682B0084600A90088FFF780FD08B98A
:10074000012016BD017ABDF800202046FFF705FD07
:1007500016BD70B582B006460D46002401E0641C4B
:10076000A4B2A888844229DA286810F8142000EB83
:10077000440000A9407802EB002080B2FFF75FFD43
:1007800050B9286810F814100170286800EB440173
:1007900049784170012076BD017ABDF800203046CD
:1007A000FFF7DBFC0028DAD0296811F814200A7062
:1007B000296801EB440252784A7076BD002076BD6C
:1007C00010B50C4682B020886188814200D308B9F8
:1007D000012016BD23796C48621DFFF793FD08B90F
:1007E000102016BD00200090237961882088621DAA
:1007F000FFF7F7FC08B90A2016BD002016BD38B572
:1008000004460D4600A92888FFF719FD08B9012004
:1008100032BD017ABDF800202B462046FFF7B8FC18
:1008200032BD002070475549496800E0096829B188
:100830008A6852898242F9D1081D704700207047AA
:1008400010B50C4600F010F860B104B1206080785B
:10085000FE2801D1172010BDFF2801D1002010BDB6
:10086000162010BD022010BD10B5424A12680021AA
:1008700000E0491C3E4B1B78C9B2994206D20623C0
:100880004B439C5A8442F4D1981810BD002010BDEF
:1008900010B50446A01C00F018FEFF20E07010BD4B
:1008A00010B50C46FFF7E0FF30B101794A1C9442C5
:1008B00004BF01F08001017110BD000010B582B0CD
:1008C00004001EBFA078FF28FE280BD00020009057
:1008D0001E232188E078172200F0C4FDFE20A070BE
:1008E000FF20E07013BD000070B504464FF6FE70A7
:1008F000844282B036D04FF6FF7651B92046FFF7DA
:10090000B3FF78BB3046FFF7AFFF05002AD0048065
:1009100073BD012906D12046FFF7A6FF050021D0AF
:100920002E800BE002291DD10121204600F008F99C
:10093000C0B92046FFF798FF050013D0A878FF281C
:100940000ED0FE2807D0002000901E23E878142245
:10095000214600F087FD2846FFF79AFFFF20A87088
:100960000020287173BD0548008870470000000012
:10097000AE480020A0480020B8C90100A0450020D2
:10098000A4460020BCC90100B4C90100A11A01009D
:10099000DF050100BB1A0100E3050100DD1A0100BB
:1009A000E3060100271B010003070100651B01008E
:1009B0002F070100B31B01002F070100DB1B010003
:1009C00053070100271B0100C1070100831B010021
:1009D000FF0701000000000000000000091C0100EA
:1009E000FF0701004F1C01002308010038B5904C9F
:1009F00000220021204601F06CFA20782C25684363
:100A0000FFF7E8FA6060B0B1002109E005FB0102E0
:100A10004FF6FF735380491C002313719362C9B2D0
:100A200022789142F2DB0020002104EB8002401C7E
:100A30000C289160F9DB31BD00217D4A02EB810277
:100A4000936813B9906000207047491CC9B20C2903
:100A5000F3DB132070472DE9F04106460C4617469C
:100A60009846204600F03EF808B111201EE04FF6EF
:100A7000FF7000F037F8050017D085F805800622D2
:100A80000699A81D00F013F96C802F712E700020BC
:100A9000A8620021079828730898E881099828829D
:100AA000204600F0B4F8002000E01520BDE8F081F9
:100AB00010B500F017F8040012D06088012100F092
:100AC000A6F8A06A08B1FFF792FA2C22002120466E
:100AD00000F01FF94FF6FF7060800020207110BDFC
:100AE000022010BD10B50022514B00E0521C1978B5
:100AF000D2B28A4208D259682C2404FB02114C88D5
:100B00008442F3D1084610BD002010BDF0B5484B1B
:100B10005C6800224FF6FF7701E0521CD2B21978D0
:100B20008A420BDA2C2101FB02F529194E88BE42BC
:100B3000F3D02D5D8542F0D10846F0BD0020F0BD18
:100B400010B50C464FF6FE71884206D0FFF7CAFF7B
:100B500000281CBF0079204201D0012010BD0020D8
:100B600010BD80B5FFF7BEFF00B1007B02BD10B520
:100B7000002000212E4A2C2406E0536804FB013398
:100B80001B7903B1401C491C1378C9B29942F4D3B4
:100B9000C0B210BD26480078704710B50C46FFF76C
:100BA000A1FF00281CBF018AA14202D004820020BC
:100BB00010BD012010BD80B5FFF794FF00B1008A81
:100BC00002BD70B505460C461646FFF78BFF28B9E7
:100BD0004FF6FE70854218D0142070BD0179806AEE
:100BE00028B9CA0609D5C90609D40F2070BD01F07D
:100BF0001202102AF7D1002EF5D0052070BD20B1C9
:100C0000807EA04201D20C2070BD002070BD70B566
:100C100004460D460026064800EB86008268100058
:100C200002D0294620469047761C0C2EF3DB70BD7F
:100C30006C47002000B583B00821ADF8001001908A
:100C40000B21ADF802106846DFF8C816096888471E
:100C50000EBD1FB5ADF806100824ADF80040ADF884
:100C600004000624DFF8AC168DF808200393ADF8D5
:100C7000024068460968884704B010BD80B500F09E
:100C8000C7F90C2000F001F802BDDFF888160968EA
:100C9000ADF802006846084700B583B000F0B8F927
:100CA0001220FFF7F2FF01980EBD01F041BA03E0F8
:100CB00011F8013B00F8013B13465A1E002BF7D1F7
:100CC00070475118491E03E011F8013900F8013B43
:100CD00013465A1E002BF7D1704770B504460D46D7
:100CE000A8B2FFF777F9060003D02A462146FFF79E
:100CF000DEFF304670BD10B513465A1E3BB110F8EA
:100D0000013B11F8014BA342F6D0002010BD012099
:100D100010BD10B5044610460A460146204601F0B3
:100D200023FA204610BD01F057BADFF8EC25DFF8B2
:100D3000EC35526A81541B7805E0DFF8E035DFF8C6
:100D4000D8251B78526AC0188154704710B504002A
:100D500001D1002010BD04F10C0080B2FFF73AF978
:100D600028B1002101600481FF2181720C3010BD87
:100D700080B508B9052002BD10F8021CFF2901D07A
:100D8000042002BD0C38FFF732F9002002BD70B517
:100D90000C46010623D5DFF880150A78FF2AA4F156
:100DA0000C0508BF4E7805D0DFF870351B78496A0E
:100DB0009A18565CFF2E02D1FFF760FF0DE000F09D
:100DC0009FF90146FF20A872234600223046FFF714
:100DD00040FF48B12046FFF7CBFF012070BD214600
:100DE000BDE87040002200E070BD70B50D00044603
:100DF000164617D0200648BFFFF740FF00F001F964
:100E0000844204D32846FFF7B3FF032070BDA5F149
:100E10000C000168002904BF817AFF2904D028460C
:100E2000FFF7A6FF052070BD8472012EDFF8E804ED
:100E3000294603D1001D00F055F802E0001D00F026
:100E400039F800F033F8002070BD2DE9F041044678
:100E5000DFF8CC04DFF8C07400688047804678680B
:100E60000026002503E005B9064650F80C0C50B1E9
:100E700010F8021CA142F6D1002D08BF0546F4D09F
:100E800000F014F805E04FF40041204600F0A2F80D
:100E900025B132462946381D00F031F8DFF88414B8
:100EA0000968404688472846BDE8F0814FF4004174
:100EB000204640E038B500F00FF8002145F80C1C42
:100EC000216811B9256006E0114651F80C2C002A62
:100ED000FAD141F80C5C2DE10446DFF844040068C7
:100EE0000D46004738B5FFF7F7FF216845F80C1CA1
:100EF0002560DFF830140968BDE83440084770B554
:100F00000446DFF81C0400680D4616468047A5F12C
:100F10000C0123680A689D420CBF226046F80C2C25
:100F200000220A60FF228A72BDE8704004E1DFF807
:100F3000F413096808472DE9F0410446DFF8DC03A3
:100F4000DFF8D45390F8008020060E462CD50420FC
:100F5000FFF7FCFE070008BF042039D04FF6FF70F2
:100F600038807E80A7F10C062878FF280FBF6D78A7
:100F7000696A4044455CFF2D05D13846FFF7F8FE0D
:100F8000FFF77CFE0EE0204600F0BAF8FF21B172B8
:100F90003B46014600222846FFF75BFEC0B13846BB
:100FA000FFF7E6FE012013E0444510D200F02DF8D3
:100FB000DFF87413096831F81420324321F8142043
:100FC000FFF7B5FFE868FFF735FE002000E00320DB
:100FD000BDE8F08138B5054600F013F885420C46AF
:100FE0000DD200F012F8DFF84013096831F815202F
:100FF000A24321F81520FFF79AFF002032BD0320FD
:1010000032BDDFF8180300787047C5480068004714
:101010000820ADF80000704730B5BF4C83B0002009
:10102000606001F0E3F801F0FAF9BC480578680067
:10103000FEF7D0FF60626A00FF21FFF76AFE02221E
:10104000FF21A01CFFF765FE01F03CFAFFF724FE2C
:101050002061FFF7DDFF1420AE4D2968ADF80200D6
:101060006846884701986061FFF7D2FF1520ADF808
:1010700002006846296888470198801EA061002008
:101080003EBD30B587B00820ADF808001B20ADF894
:101090000A0001200390A04D0FF27D009D4C2168B5
:1010A0000590286A0690E869049002A88847049988
:1010B000E96108B1FFF7E2FD00F052F8FFF7A8FF81
:1010C0000A20ADF802004FF0FF3001906846216819
:1010D0008847F1E780B500218F4A8A189378FF2B63
:1010E00001D1907001E0834203D141F08000C0B291
:1010F00002BD491C0229EFD3FFF7C0FDFF2002BD4E
:1011000010B580F08004022CA8BFFFF7B7FD82481D
:101110002018807810BD000038B50446FFF775FF31
:1011200005467D48016A8C4204BFC068FFF782FD16
:101130004FEA0500BDE834407A490968084710B510
:101140000446608848B9E088FFF7C4FF2072FF2892
:101150000CBF6FF00300002010BD6FF0010010BD48
:101160002DE9F0478AB001F034F9FFF795FD6A4E9A
:101170007769D6F810A00025B7F57A7FA0EB0A04AE
:1011800014D0A7FB04014FF47A72002301F00AFA8D
:101190004FF47A78A8FB0023044608FB013310467D
:1011A00019463A46002301F0FDF9504430612046CB
:1011B00001F070FAB068010003D0804701E0FFF74A
:1011C0005DFD0820ADF808000720524C2168ADF8FD
:1011D0000A0002A88847BDF80E10049F08BBA7F1BB
:1011E0000C08002400E0641CFFF70BFF8442E6D2E9
:1011F000706A205C8842F6D1E4B2FF2CDFD098F808
:101200000400FFF767FF98F80610012908BF38703F
:1012100002D0022908BFB87039462046FFF7B7FD53
:10122000CFE7414F386830F8150028B9FFF7E9FEDD
:101230006D1CEDB28542F4D33848DFF8E8800078C1
:10124000DFF8DC9085421CD2D9F80000804739686D
:1012500031F815A0002200F049F8344A35705146A3
:1012600052F82520284690478246FF203070D9F852
:1012700000008047396831F815204AEA020200F080
:1012800035F801F0A6F8054615F1010F2BD005B988
:10129000274DB069A84238BF0546D9F800008047FD
:1012A0000821ADF800100746F06901901C21ADF847
:1012B00002106846216888470821306AADF814108A
:1012C000401C13213062ADF816100990069519499B
:1012D000F0690891079005A8216888470798F06190
:1012E000384600F005F80AB0BDE8F08721F815206F
:1012F000D8F80010084710B540B1002300E05B1C8F
:10130000DBB2934204D21C5C8C42F8D0002010BDAA
:10131000012010BD304800202844002080C9010071
:1013200034480020384800208848002058C901006F
:101330008EC2F52819110100814908607047814962
:1013400008707047032290FBF2F080B200F0D8B929
:101350000178B02904BF417800290CD10179122904
:1013600003D1417C012906D101E01B2903D140882A
:10137000012100F0E2B9704780B5734A5070042132
:1013800072480078401C1070507800F05DF9BDE89C
:101390000140FEF73FBE38B50C46200411D56A481F
:1013A0004078FFF752FD050008D02878A02804BF38
:1013B000284600F008F82846FFF7DAFC84F40040DD
:1013C00032BD002032BD30B587B0044601208DF813
:1013D000000001A9204600F02DFB05002AD19DF850
:1013E00006105748C9070AD54368180005D0608819
:1013F00000AA01A9984705461CE006251AE00368E3
:10140000180006D0608800AA01A99847050001D1FC
:1014100010E006259DF8050060B99DF806008DF8DE
:1014200010008DF814500020ADF8120004A9608857
:1014300000F0A9F99DF8000000281EBFA068002850
:1014400000F0ABFA45B99DF80600122806BF9DF8DA
:10145000051001291B2803D06088012100F06DF9D7
:1014600007B030BD2DE9F0410446FF2C0D4616466D
:1014700098461FD02020FFF769FC070018D0B02045
:1014800038707E707D8087F80480069929B1182213
:1014900007F10800FFF70BFC04E0182207F1080031
:1014A000FFF737FC39462046FFF771FC002002E0C9
:1014B000132000E00220BDE8F08110B54FF47A74EB
:1014C0006243BDE8104001F05CB910B504001EBFD6
:1014D0002078FF28FE2803D001F05BF9FF20207060
:1014E00010BD80B5009313460A46014615480078A2
:1014F000FFF7B8FF02BD30B583B004460D4600F0DB
:101500003EFC50B901A80090ADF804507F230D486F
:10151000007800222146FFF7A5FF37BD00B583B054
:101520007E238DF804108DF8052001A9009100227A
:10153000014604480078FFF795FF07BD0000000052
:1015400068480020A3460020AE4800206C470020D9
:10155000052923D006291BD0072918BF09291DD02A
:101560000B2918BF0D2919D00E2913D00F291CBF24
:101570001129122912D0162918BF17290CD01B299E
:1015800018BF1D290AD0522918BFD22906D007E05A
:10159000C06870470068704780687047406870474F
:1015A0000020704770B5052914461D4616D006293F
:1015B00012D0092918BF112910D0122912D01629CA
:1015C00018BF17290CD01B2918BF1D290AD0522972
:1015D00018BFD22906D007E0072606E0022604E05D
:1015E000052602E0032600E001264FF6FF72944232
:1015F00003D100F0D9FB841B02E0D22908BF0C34D0
:10160000301980B201F01AFC38B105B12C8071425A
:10161000BDE8704009B200F0E5B970BD80B5FFF7D4
:1016200097FF00281CBFBDE8024000F0B6B901BD1D
:10163000DFF800F0F5950010DFF800F031960010AB
:10164000DFF800F05D9600100A4610B5052A18BFB5
:10165000042A03D0062A18BF072A08D1414B0C24BC
:1016600004FB023222F8301D9070002010BD0220D1
:1016700010BD38B50D4604462888052818BF042833
:1016800003D0062818BF072801D1686808B90220CE
:1016900032BD01212046FFF753FA08B9142032BDAC
:1016A0004FF6FE70844207D02046FFF784FA29895E
:1016B000884201D21B2032BD2B48007800282946E1
:1016C00020461CBFBDE8344001F0A5B9BDE8344058
:1016D00001F057B980B5254B009313460A46012106
:1016E0000BE0E0B5019200230422009202930A4627
:1016F0001F4B122101F0DAF80EBD01F00BF902BD0B
:1017000038B504461B480129017011D11A480088D8
:10171000051D0120FFF78CFF01B0ADB2284694FBF8
:10172000F5F2BDE83040002392B20021FFF784BFFC
:10173000BDE832400020FFF77BBF03B50D480078BD
:10174000012881B003D102AA01A9FFF779FF07BDE3
:10175000094A001F1080044801707047064800883D
:1017600070470000A447002072480020132B01009E
:10177000912B0100B3480020A046002070470000D4
:101780006E490860704780B5002200920B46012226
:101790006B4900F0BAF802BD80B50A88172A05DB4C
:1017A000002200920B4603226649F2E7022002BDA6
:1017B00038B50D460446A878012818BF02280DD177
:1017C000288800281CBF6868002807D0022100F084
:1017D00009F900902B4605225B4931E0022032BD19
:1017E00038B500F01EF81CBF6868002806D000F06D
:1017F00036F800902B460722544921E0022032BDE2
:1018000038B500F00EF81CBF6868002807D0022128
:1018100000F0E8F800902B4609224D4910E0022024
:1018200032BD0D46044628880028704738B500F0C0
:1018300024F808B100F013F800902B460B2245491C
:10184000204600F062F832BD38B500F016F808B155
:1018500000F005F800902B460D223F49F0E70121EA
:1018600000F0C0B838B500F008F808B1FFF7F7FF8E
:1018700000902B460F223949E2E70D46044668687E
:10188000704738B5FFF7CDFF1CBF6868002807D048
:10189000022100F0A7F800902B4611223049CFE733
:1018A000022032BD80B5002100910023132270E791
:1018B00038B50D460446A86810B1052100F092F82D
:1018C00000902B4617222749BAE780B500210091E6
:1018D000002319225DE738B5FFF7CFFF10B10321D0
:1018E00000F080F800902B461B2209E038B5FFF786
:1018F000C4FF10B1032100F075F800902B461D22A3
:101900001949204600F0BDF932BDF8B504460698E5
:10191000009015461E46204600F0B3F907000AD194
:1019200006480268100006D0012D04BF3078451C1F
:10193000E9B2204690473846F2BD00008C480020AE
:101940008F1A0100AB1A0100C51A01001F1B01000C
:10195000631B01007F1B0100D71B0100F31B01006B
:10196000F71B0100311C0100611C010070B500F083
:1019700035F8054604F1080080B2FEF72BFB06009F
:1019800005D02948B48001683160066008362749CF
:10199000096828468847304670BD38B500F01EF803
:1019A000214A05461068002101E00146006878B12F
:1019B00000F108039C4221BF83881B180833A3420F
:1019C000F3D3036800290CBF13600B60FEF70FFB15
:1019D0002846BDE8344015490968084704461448BC
:1019E0000068004738B504460D4600F00EF80100C7
:1019F00009D0601B01F10803984221BF8B88591858
:101A00000831814200D2204632BD0749096841B100
:101A100001F10802904221BF8A885218083282429E
:101A2000F4D308467047000084480020384800205E
:101A300034480020F8B505460C46AF892FB3AA6894
:101A4000167830060FD50D2F1FDB0C3FBFB2B8182C
:101A500000903B466888012101F0CAFB002814BFB2
:101A60000220012000E000202070B00900F00100F9
:101A7000607006F03F00A070781EA08080B208B1B0
:101A8000A868401CA0600020F2BD0120F2BD0A78C9
:101A900002704A8842704A88120A8270097985E089
:101AA000022B00D163E00420704700BF0A88027057
:101AB0000988090A417002207047042B00D17DE09B
:101AC000042070478A7802708878098801280CBF42
:101AD000042012204843401C80B2704770B51E4657
:101AE000062E144619DB049D2078617800EB012056
:101AF00028800222A078E17800EB01206880211D77
:101B000002202871681DFFF7D2F8B01F288180B22B
:101B100000B1A01DE860002070BD042070BD0888E1
:101B20008004000C704710B5029C062B104612D1A1
:101B3000022121714278017801EB02212180C278D3
:101B4000817801EB02216180011D2279601DFFF780
:101B5000AEF8002010BD142B08BF1021E9D00420DE
:101B600010BD49E0022B00D101E00420704710783D
:101B7000517800EB01200099088000207047088808
:101B8000704710B5022B0FDB029C20726172107837
:101B9000517800EB01202080981E608080B200B157
:101BA000901C6060002010BD042010BDC170042096
:101BB0007047042B00D101E0042070470098117891
:101BC000537801EB032101809178D27801EB022157
:101BD00041800020704708887047D80707D459080B
:101BE000022904DB009881800260002070470420F5
:101BF00070470888704700BF4A88098802705143BF
:101C000089B2481C80B2704710B5042B0EDB00F07F
:101C100031F8D478917801EB04214180191F81803B
:101C200089B201B1111D8160002010BD042010BDDA
:101C300000BF0A8802700A88120A42704A888270BD
:101C40004A88120AC2708888001D80B27047012B32
:101C500004D1009910780870002070470420704764
:101C600000BF0A8802700A88120A42704888801CE5
:101C700080B2704702981178547801EB04210180FA
:101C800070472DE9F04784B080460C9D0C46914684
:101C90009A4655B9172001F0D1F80126050005D163
:101CA0001324204604B0BDE8F0870026284601270B
:101CB00000F8019B14B15146A047471C5FEA096038
:101CC0000DD510214046FEF73BFFD0B9BFB27A19BF
:101CD0003946284601F03FFA04000CD10C370420A5
:101CE000ADF800000195ADF8087000A94046FFF777
:101CF000C0FC0400D5D0002ED3D02846FFF74DFEFF
:101D0000CFE71924F7E730B5022918BF102985B0AD
:101D10000446154603D1022B18BF102B01D000201A
:101D200017E0994204D10A462946FEF7E4FF10E085
:101D3000102900A906D1284600F00DF8102200A9AC
:101D4000204604E000F007F8102200A92846FEF71C
:101D5000D2FF05B030BD38B504000D4618BF002DC8
:101D60000BD010220FF260012846FEF7A0FF20786A
:101D7000287360786873012032BD002032BD38B509
:101D800004464FF6FE7084420D460BD0172D09DB3A
:101D9000FFF7E4FCA84205D329462046BDE83440BD
:101DA000FEF7FBBE012032BD80B54FF6FE718842C2
:101DB00004D0FEF700FF28B9172002BDBDE801409E
:101DC000FFF7CCBC02BD0000FB349B5F80000080AD
:101DD000001000000000000038B54FF6FF74A0426C
:101DE0000DD10020154A137898420EDA21F82040D0
:101DF00001EB80050023401CAB70C0B2F3E700F09C
:101E00000BF810B104800021817031BD80B500F065
:101E100003F800B1807802BD002200E0521C074B9D
:101E20001B78D2B29A4206D231F822308342F5D1E1
:101E300001EB820070470020704700006C470020D3
:101E4000DFF800F0DD8A0010DFF800F0A18B001051
:101E5000DFF800F0D5700010DFF800F09D5800109A
:101E600030B540F67B44851FA5423CBF8D1FA5427F
:101E700012D2814210D3B2F5FA7F0DDAA3F10A0033
:101E800040F67744A04207D2501C49004843B0EBCB
:101E9000C30F8041C00F30BD002030BD80B501F0C0
:101EA0004DFD8DF8000002F03FFA744900200870E3
:101EB00000AA73490880012140F603405DE080B527
:101EC0000FF22822412141F20200FFF7B9FF002062
:101ED00002BD7CB5002808BF002938D1BABB01A8D3
:101EE00002F0A2F99DF8040000EBC000451DEDB220
:101EF0002846FEF76FF806004FF6204418D0202041
:101F00003070042070700020B0709DF8040000282C
:101F10000CBF0022721D311DF01C01F09BFD3246EA
:101F20002946204602F011FB3046FEF760F80CE02F
:101F300020208DF80000042100A800AA417007218C
:101F400081702046032102F000FB002076BD01F0E5
:101F500081FD76BD80B500208DF8000000AA4948BB
:101F600000788DF80100042100208DF80200464819
:101F700000788DF8030042F20200FFF761FF0020B5
:101F800002BD38B5044642F2160529460020FFF787
:101F90005BFF204601F0F4FD8DF8000020B100AA9F
:101FA00001212846FFF74CFF002032BD80B50123F8
:101FB00001F011FF00F01BF842F21E00DDE780B5D2
:101FC000012101F081FF00F012F842F21D00D4E778
:101FD00080B530B1014608222C48FEF768FE00208B
:101FE00000E0122000F003F840F66340C5E78DF8EA
:101FF000000000AA0121704780B542F213010C20B5
:10200000FFF722FF002002BD10B582B01D218DF820
:10201000001000AC04218DF8011010B9FFF718FF73
:1020200000E01120A07000AA03214FF61D4002F02D
:102030008CFA002016BD80B51C208DF8000000AA87
:1020400004208DF8010003210C208DF802004FF6CA
:102050001C4002F07AFA002002BD02F0EFB880B511
:1020600030B10B4902780A7040784870002000E0D7
:102070001220FFF7BCFF42F201007EE7244F002050
:10208000264F0020104800208B4C002028480020BC
:102090002048002000B585B000AA0DF1020101A87A
:1020A000FFF7DAFE8DF80800102107208DF80900EF
:1020B00002AA02A8817002218DF80B109DF804106D
:1020C0008DF80C10BDF802108DF80D10090A8DF86E
:1020D0000E10BDF80010C171090A017241F2010031
:1020E0000921FFF7ADFE002005B000BD0000008013
:1020F0000000C000000000E40000002822000000F2
:10210000000000040000F7C3B37E000000000000E0
:1021100000000000000000000000000000000000BF
:1021200000000000000000000000000000000000AF
:1021300000F10103810704D010F8011B89B1810768
:10214000FAD10268B2F10131914311F0803F04BF2E
:1021500050F8042FF6E710F8011B11B110F8011B1D
:10216000FBE7C01A7047000062F30F2262F31F42C0
:10217000401810F0030308D0C91A1FD3DB0748BF6B
:1021800000F8012D28BF20F8022D130030B41446AA
:102190001546103928BF20E93C00FAD8490728BF66
:1021A00020E90C0048BF40F8042D890028BF20F822
:1021B000022D48BF00F8012D30BC7047C91818BF68
:1021C00000F8012DCB0728BF00F8012D7047000053
:1021D000DFF800F00158001080B502216846FFF7D3
:1021E000F7FFBDF8000002BD70477047804900202E
:1021F0004860704770B504460D46164600F018F862
:1022000008B1466070BD1020FDF7E4FE78B184721D
:102210000581466000210160C16075490A6812B9F4
:10222000086070BD0A4611680029FBD1106070BDBE
:102230006F4A12682AB113898B4204BF937A834292
:10224000F7D11046704708B1002101817047F8B5F9
:1022500000F022F800F01BF800F04AF80446384677
:102260008847002C14BF00200820F2BDF8B500F00C
:1022700013F800F00CF804005E4918BFE660096826
:1022800038468847002C14BF00200820F2BD0746BE
:10229000324629462046ADE70446574800680D46B9
:1022A0001646004770B500F026F806462946204637
:1022B000FFF7BEFF040018BFFFF7C5FF00F018F8D6
:1022C00030468847002C14BF0020062070BDF8B5AA
:1022D00000F011F8074629462046FFF7A9FF00261F
:1022E00000B1466800F004F8384688473046F2BD31
:1022F00040490968704704463F4800680D4600475A
:102300002DE9F047DFF8F090394D82B00746D9F853
:1023100000000097804701466868381868600846E2
:10232000344F396888472E68002E50D04FF000088F
:10233000D9F8000080478246BDF80200002400283A
:1023400004BF9DF80100002807D130799DF80010E6
:10235000884202D3401A307106E0706800998142C9
:102360003ABF401A70607460B08860B9F08860B994
:10237000F06800281CBF318900290AD0B07AFEF726
:10238000DAFDF0687060B08808B9F08808B130896B
:1023900040B93068B8F1000F0CBF2860C8F80000E1
:1023A000344600E0B046366839685046884764B124
:1023B000A088002804BFE088002803D12189A07AE2
:1023C000FEF7B9FD2046FDF712FE002EB0D1BDE8A4
:1023D000F3870748016841B108484A68824298BFBC
:1023E000104609680029F8D17047002070470000A6
:1023F0006048002038480020344800208EC2F5286C
:1024000000B583B00821ADF800108DF80400172145
:10241000ADF8021068461A49096888470EBD194888
:1024200000218180012101707047F8B506461648E9
:10243000007886420C4601D30320F2BD114D287866
:10244000E8B11248006880470746012000FA06F606
:10245000A88844B920EA0601A98058B151B90020E2
:10246000FFF7CEFF06E010B90120FFF7C9FFA888EB
:102470003043A88038460649096888470020F2BDE5
:10248000304800205048002080C901003448002016
:102490003848002030B585B0144608220291ADF8C6
:1024A0000020002238490968ADF80400ADF8022088
:1024B0001D4668468847BDF80C10218004992960A4
:1024C00005B030BD1CB51420FDF784FD2F49086010
:1024D00014220021FEF71DFC002001F053F801201A
:1024E00002F072F8022000F005F9032002F0A2F8D1
:1024F000042002F0E4F9052002F01EFB0620FEF79E
:102500003BFF0720FCF798FD082003F086F8092020
:1025100003F058FA01AB6A4600211020FFF7BAFF1A
:10252000BDF800100920FEF700FC0024BDF80010E3
:102530002046FEF702FC641C092CF7DB13BD10B526
:1025400082B003F0D5FE124B124A13495020FFF718
:10255000A1FF48B10820ADF800000C200A49096825
:10256000ADF80200684688470C480068804704467A
:1025700004F06CF8FEF750FD0949096820468847C9
:10258000FEF77FFD002016BD30480020884800205F
:10259000344400207E4800203F11010034480020D0
:1025A000384800201B4213D1094236D12AB1844653
:1025B000B0FBF2F002FB10C2704704F003B9FCD389
:1025C0000022002370470B0002000021002070470A
:1025D000904271EB030CF6D370B5B1FA81F4B3FA03
:1025E00083F52C1BA340C4F1200532FA05F63343D2
:1025F000A2405FF00046E64002E05B085FEA32027C
:10260000841A71EB030524BF204629467641F4D392
:1026100002000B003000002170BD012ACFD970B537
:10262000140C20D0B1FA81F4B2FA82F5C4F120047E
:102630006419B4F12006D6D3B2405FF00044F440F0
:10264000002502E052085FEA3303C61A71EB020E5E
:1026500024BF3046714664416D41F3D302000B0044
:102660002000290070BD0C46B1FBF2F102FB1145C0
:102670002D0445EA1045B5FBF2F402FB145580B277
:1026800040EA0545B5FBF2F002FB105240EA044077
:1026900070BD000070B5134D0446286820F002009C
:1026A000286011480068804710490A68A218B2F5EE
:1026B0007A7F0AD34FF47A734E68B2FBF3F39E1914
:1026C0004E604FF47A7606FB13220A6008490968C7
:1026D00088472046FFF714FE286840F00200286073
:1026E00070BD000010E000E03448002048480020A1
:1026F000384800205F4B1988FF2905D118807822BF
:102700000021181DFEF705BB70472DE9F041044676
:102710000D46280448BF85F4004030D475B35648B0
:102720000068804780460026002025FA00F1C9078E
:1027300018D550490A88121BC2EB0212821801EB0D
:10274000C2010F1D012101FA00F6396808001CBF03
:1027500078688847B1B22046FFF7B9FD30B93860D4
:10276000786003E0401CC0B20F28DEDB43490968F3
:102770004046884786EA050080B200E00020BDE8B8
:10278000F08110B582B00024FFE7009400F02AF831
:1027900016BDF8B504463848384E006880470F2CFF
:1027A00005461ADA334800EBC4077968A9B10F214E
:1027B00094FBF1F2C2EB021300880121E31A994065
:1027C000801889B2C0B2FFF76DFD00207860B86054
:1027D0002846316888470020F2BD3168284688477E
:1027E0000220F2BD2DE9F44F80462348234C0068B7
:1027F00089461E46804783465FEA080004D1216867
:1028000058468847022032E00025DFF868A00AEB2E
:10281000C507786818BB9DF8280001280CBF184B25
:10282000184B0F2095FBF0F0C0EB001E4FF0010C91
:10283000A5EB0E01009A0CFA01F1BAF800C0604451
:1028400089B2C0B2984750B9C7F80480C7F8089059
:1028500006B13570216858468847002007E06D1C96
:10286000EDB20F2DD3DB2168584688470820BDE81C
:10287000F28F0000504400203448002038480020E7
:102880006D2201004F220100DFF800F0E9940010F2
:10289000DFF800F0A19400100A7802704A784270C4
:1028A0008A78C97802EB0121418070472DE9FC410B
:1028B0000D4616461F460A9A0999044601AB00F0D8
:1028C000EFF95FEA000822D10199089808703346B1
:1028D000DFF84C050178491CC9B2002906BF012167
:1028E00001220A4601702946019802710097019859
:1028F0000279204600F00EF85FEA000804D1019842
:102900001E2100F013FA02E0019800F0F2F94046AF
:10291000BDE8F6812DE9F041044684B00E46174625
:102920009846172000F08AFA050025D00A9A100070
:1029300003D04146281D904700E00020010A2E7078
:10294000E9706F70A8700521001DADF80800ADF8A2
:102950000010019500A9DFF8CC040078002820467B
:1029600002D000F058F801E000F00BF8040004D0A9
:102970002846FFF712F800E01324204604B0BDE813
:10298000F08110B50B88DFF8A0240C2404FB03228F
:10299000303A536833B94B685360098950811181CB
:1029A000002010BD162010BD80B5052000F00FF8E6
:1029B00058B9062000F00BF838B9042000F007F8E9
:1029C00018B9072000F003F800B1012002BDDFF8BC
:1029D00058140C2202FB001110B5A1F1300484B090
:1029E0006168A9B1DFF83C2412787AB1ADF8000033
:1029F000019100A92089ADF80800608900F00BF86A
:102A000010B16068FEF7C9FF00206060012000E09F
:102A1000002004B010BD70B50D460446288920B1D1
:102A2000DFF808140988814201D21B2070BD686854
:102A30000421FEF7D7FF0646288930702889000A4E
:102A400070702888B0702888000AF0702889051DE9
:102A50004FF6FE70844213D10C20FEF777F9010087
:102A60000CD0902008704C8002200871CD808E60C0
:102A7000DFF8BC030078FEF78AF917E0132070BD79
:102A80003346AAB200212046FFF7FEFE010007D020
:102A900002280DD007280FD012280BD01F280CD1E8
:102AA000DFF88003017809B1491E0170002070BD74
:102AB000142070BD022070BD042070BD38B50446DE
:102AC000002060600879022821D1CA88042A1EDB10
:102AD000886801784378C57801EB0321837889B24F
:102AE00003EB05230D1D95429BB210D1052B18BF9A
:102AF000042B03D0062B18BF072B08D1218123807C
:102B00006FF00301FEF76EFF6060002032BD012010
:102B100032BD0B88037002220B881B0A43700B889E
:102B2000012B06D14A88827004224988090AC170A3
:102B30000CE0022B0AD14A8882704A88120AC270BD
:102B40008A88027106228988090A417110467047F5
:102B5000022A1BDB0A784B7802EB032202800288F0
:102B6000012A05D18A78C97802EB012141800BE066
:102B7000022A09D18A78CB7802EB032242800A79B3
:102B8000497902EB012181800020704701207047C4
:102B90000A8802700A88120A42704A8882704A883B
:102BA000120AC2708A8802718A88120A4271CA881F
:102BB0008271C988090AC17108207047082A18D192
:102BC0000A784B7802EB0322028011F8022F4B782F
:102BD00002EB0322428011F8022F4B7802EB032212
:102BE000828011F8022F497802EB0121C180002078
:102BF000704701207047022A00D101E00120704790
:102C00000A78497802EB0121018000207047F8B56D
:102C100004460D4616461020FEF798F8070016D019
:102C2000A02038707D80002078702EB10C223146B3
:102C3000381DFEF73CF804E00C220021381DFEF799
:102C400068F839462046FEF7A2F80020F2BD0120C0
:102C5000F2BD2DE9F04180460D4616461F46202064
:102C6000FEF774F8040019D0A22020706670658009
:102C7000069820716771079929B1182204F108009C
:102C8000FEF715F804E0182204F10800FEF741F8F9
:102C900021464046BDE8F041FEF779B8BDE8F08135
:102CA00070B51E0004460D4621D00121FDF748FFF6
:102CB000D8B160480078002100E0491CC9B28142C7
:102CC00011DA5D4B1B6803EB01125388002BF4D122
:102CD0000020107001F14000508022B1D4801572A4
:102CE0003260002070BD152070BD142070BD012021
:102CF00070BD10B5044610220021FEF70AF824E04A
:102D0000002201E0521CD2B24A4909788A420BDA09
:102D10004949096801EB02114B88002BF2D00B796D
:102D20008342EFD108467047002070474FF47A7213
:102D30004A4300F1090301460FF21500FFF721BDD8
:102D400010B50446607AFFF724FDFF20607210BDC5
:102D500010B504001CBF6088002807D0172120464A
:102D600000F005F82046BDE81040C2E710BD1CB5D4
:102D70000446207804280FD10020019000900A46D4
:102D8000E188207A1323FFF764FFE18802B0BDE8F1
:102D90001040122205202DE013BD072170B5044616
:102DA000002531BB17E02448006800EB0516307899
:102DB00000281CBF707AFF280CD0F088A04209D1EF
:102DC0003046FFF7BDFF14213046FFF7D0FF3046F5
:102DD000FFF78FFF6D1C17480078EDB28542E2D3F4
:102DE0000425FF222146284600F004F86D1C082D1A
:102DF000F7DB70BD10B50C4B0C2404FB0030A0F1C8
:102E00003004608988420AD1606840B1FF2A1CBF43
:102E10000178914203D1FEF7C0FD0020606010BD33
:102E2000B448002072480020A4470020A04600209B
:102E300070480020714800207448002080B5001DB3
:102E400080B2FFF725FD28B1BDE804406FF0030113
:102E5000FEF7C8BD02BD0000DFF800F0519B001076
:102E6000DFF800F0D557001038B504000D4618BF44
:102E7000002D01D1022032BD032100A800F029F964
:102E800000A82A4600F027F8040004D1032200A974
:102E9000E81CFDF70CFF204632BD30B504000D469E
:102EA00018BF002D83B001D102203EBD0322E91CD2
:102EB00000A8FDF7FCFE00A801AA00F00CF848B934
:102EC0000322294601A8FDF716FF012801D10020A1
:102ED0003EBD01203EBD817801F03F0141F040013F
:102EE0008170204600A950E070B5234C054620684B
:102EF00070B3A5B9027862B90822801CFDF7D7FE2D
:102F0000FFF7AAFF18B92168012008701FE001250A
:102F100003E008220A30FDF7CAFE2068B8B112208B
:102F2000FDF714FF06000DD0C1203070757010221F
:102F30002068811CB01CFDF7BAFE2068407831463D
:102F4000FDF725FF2068FDF752F8002020600120E2
:102F500070BD80B5202003F049FC38B10246074817
:102F60000078BDE808400121FFF771B901BD0348B1
:102F700000780121FFF796B9A8480020B548002045
:102F80001022214600A8FDF79CBE70B58CB000F061
:102F90000FF8FFF7F5FF032229460DF11D00FDF79D
:102FA00090FE00F00DF8044603220DF12D0185E09E
:102FB00004460D4616463022002100A8FDF7A9BEA2
:102FC00000A8C2E0F0B595B005460C4616461F466F
:102FD0003022002108A8FDF79CFE1022294608A8EF
:102FE000FDF76FFE1022002100A8FDF792FE0722D8
:102FF0003146FFF7C7FF072239460DF10700FDF7FD
:1030000060FE1C9901B101218DF80E101A9901B1D1
:1030100001218DF80F101022002104A8FDF779FE80
:103020001B99062205A8FDF74CFE1D9906220DF1FD
:103030001A00FDF746FE102221460CA8FDF741FEBE
:1030400000A90CA800F01AF808A800F07EF80446C1
:10305000102210A90CA8FDF72AFE04A90CA800F064
:103060000DF808A800F071F805461E98102210A966
:10307000FDF727FE45EA040015B0F0BD10B510229B
:10308000037811F8014B6340521E00F8013BF7D161
:1030900010BD70B50C468CB0154601461E46102278
:1030A000FFF770FF0822214604A8FDF70AFE00F092
:1030B0000BF8FFF785FF0446102208A93046FDF7FC
:1030C00000FE20460CB070BD0822294606A8FDF778
:1030D000F8BD70B504460D46002609E0FDF723FE55
:1030E000010A3155761CF6B2AE423CBF3055761C13
:1030F000F6B2AE42F2D370BD006800F00301C0F337
:10310000800241EA8201C0F3C00241EAC201000923
:1031100041EA0010C0B27047026861F30102026028
:103120004A0703684CBF0422002223F004031A4319
:1031300002600B074CBF0823002322F0F8021A4359
:10314000090942EA01110160704700F1200200F113
:103150001001FFF785BE2DE9F0470700144614BFA4
:10316000002C022088B089463FD009F10405A8B29E
:10317000FCF730FF060036D003F08CFC80464A4650
:103180003946301DFDF79DFD86F803804FEA18276C
:10319000B7704FEA184986F801904FEA186A86F826
:1031A00000A003F074FC0146102203A8FDF789FD7E
:1031B0000820009001ABAAB2314603A800F085F8C0
:1031C00005000DD184F80080677084F8029084F8BF
:1031D00003A0082201A9201DFDF773FD03F05EFC8A
:1031E00000F070F800E01325284608B0BDE8F0872D
:1031F0002DE9F04F89B015001CBF129F002F8046AB
:103200000E469A4615D0FDF76DFC040008BF142049
:1032100055D03878797800EB0120B97800EB01407F
:10322000F97800EB0169606A484504D310F1010F99
:1032300001D0022043E026B12079800758BF012049
:103240003DD50822002101A8FDF763FD0AF1040B1A
:103250001FFA8BF0FCF7BEFE060008BF13202ED02D
:1032600052462946301DFDF72CFD042239463046D2
:10327000FDF727FD102204F1140105A8FDF721FD3B
:103280000820009001AB1FFA8BF2314605A800F030
:103290001CF8050010D1082201A903A8FDF711FDB3
:1032A0000822391D03A8FDF726FD012811BF0125BD
:1032B0004946404603F0ADFD00F004F8284609B049
:1032C000BDE8F08F3046FCF792BE2DE9FA4F8346F9
:1032D00085B0154600F0CFF8814600F0CCF8B9F182
:1032E000000F804608BF132400F0B680B8F1000F2D
:1032F00008BF132400F0AD8000F0BDF800F0BAF86C
:10330000BAF1000F064608BF132436D00EB91324B5
:1033100030E010220021FDF7FCFC524631465846B1
:10332000FFF717FF040025D19AF800000FF27C1771
:10333000000604D44946504600F0AAF808E0314699
:10334000504600F0A5F84A463946304600F096F857
:1033500099F80000000604D44146484600F098F869
:1033600008E03146484600F093F842463946304678
:1033700000F084F85046FCF73AFE0EB1FFF7A2FFCA
:10338000002C66D100F077F800F074F8BAF1000F65
:10339000064608BF132459D00EB9132453E005F193
:1033A0000F00C11000EB117007033F1405F00F016F
:1033B00002D10127002202E04A1E9241D20F781E5C
:1033C000059B000503EB104012B222B1324649467C
:1033D00000F054F810E000AB8A42B8BF155C02DB85
:1033E0000CBF80250025D554521C102AF4DB324630
:1033F000414600A800F042F8102200215046FDF797
:1034000088FC00250BE00598290189B2091800AA5B
:10341000504600F033F800F029F804466D1C2DB238
:10342000781E854201DA002CEDD064B900AA31463D
:10343000504600F023F800F019F80446109A069858
:103440005146FDF734FC5046FCF7D1FD0EB1FFF7B5
:1034500039FF4846FCF7CBFDB8F1000F1CBF4046D2
:10346000FCF7C5FD204607B0BDE8F08F524600A925
:1034700058466EE682461020FCF7ACBD30B50023FE
:103480001C5C5D5C6C409C545B1C102BF8DB30BDFD
:1034900010B500220F231C5C42EA44025A541A5C05
:1034A000D2095B1EF7D510BD00000000000000002F
:1034B000000000000000000000000087DFF800F0BE
:1034C00001720010DFF800F021AD0010DFF800F00D
:1034D0006DAD0010DFF800F0C1D80010DFF800F08B
:1034E000B5D80010DFF800F01DB50010DFF800F0CF
:1034F0003DAC0010DFF800F0AD8E0010DFF800F0FA
:10350000F58B0010DFF800F00D720010DFF800F00E
:1035100089D10010DFF800F0C9B40010DFF800F026
:1035200019570010DFF800F061840010DFF800F098
:103530008D670010DFF800F0BD800010DFF800F0AC
:103540002D8A0010DFF800F0C9870010DFF800F0C6
:1035500069720010DFF800F071940010DFF800F0DD
:10356000A9AC0010DFF800F0E5730010DFF800F000
:1035700035A30010DFF800F0E1AC0010DFF800F038
:10358000EDAB00102DE9F84FDFF8104BDFF8105BC2
:10359000207007210020A860DFF8080B01700D21C2
:1035A00041804FF404718180DFF8FC0ADFF8FC1AD7
:1035B000E9608A7E0270FF2ACB7E437008BFFF2B32
:1035C0000E7F86704F7FC77091F81EC080F804C0D0
:1035D000C97F417116D1FF2E08BFFF2F12D1BCF158
:1035E000FF0F08BFFF290DD1DFF8C41A0A78027057
:1035F0004A7842708A788270CA78C2700A790271F9
:1036000049794171DFF8AC1A0278DFF8AC8ADFF84B
:10361000AC7ADFF8ACEA0A7042784A7082788A7035
:10362000C278CA7002790A714079DFF8D82B4871E4
:10363000FF21DFF8900A017041708170C170017143
:103640004171101D017141718171C171017241722D
:10365000002101708172A0218181032181730721E2
:10366000C1730021017428214182012101750021CB
:10367000817502F15A0100224A7001220A704275D6
:103680000020DFF8441A0880D8F82C30DFF83C1A04
:1036900058780870197839709A782A709E68367947
:1036A000761E8EF80060DB78DFF85C6B6B704FF491
:1036B000967333801B261B2392FBF3F306FB132226
:1036C00002B10122D21850436880881C1821484357
:1036D00080B2FCF77FFCDFF85C6BB060002855D04F
:1036E0003878002855D04FF49071484380B2FCF7E9
:1036F00071FCDFF8449BC9F8040008B9B06843E0E6
:10370000387838214843FCF765FC686020B900F040
:103710008AF8D9F8040037E03878DFF864AB0001A4
:10372000FCF758FCCAF8000028B900F07CF800F05B
:103730007DF8686828E03878DFF848BB0001FCF7BE
:1037400049FCCBF8000048B900F06DF800F06EF8C5
:103750006868FCF74CFCDAF8000015E03878302196
:103760004843FCF737FCDFF8201B086088B900F0FD
:103770005AF800F05BF86868FCF739FCDAF80000EA
:10378000FCF735FCDBF80000FCF731FC4FF480411E
:1037900044E0DFF8F80A00688047074604F017F8AD
:1037A000FFF78CFEDFF8E80A006900688047FFF742
:1037B00089FEFFF78BFEDFF8DC0A00210160016063
:1037C000C160C16003F050FE04F068F9DFF8C81A68
:1037D00040F2FF700860FFF77DFE0646FFF77AFEB5
:1037E000864208BFFFF77AFED8F80C006978008897
:1037F0000843DFF8A81A08803846DFF8A41A0968D9
:1038000088470C21DFF89C0AFFF76CFE2078002126
:10381000FEF70BFE00F092F84FF400512078BDE85F
:10382000F44FFDF788BBB068FCF7E1BBD9F80400A2
:10383000FCF7DDBB30B50C46E00785B013D5FFF7CC
:1038400055FE38B100218160DFF85C0A0068010094
:1038500018BF8047DFF8440800780021FEF7E5FD37
:1038600084F001005EE0A00707D500F05DF83C2081
:10387000FFF740FE84F0020054E06107DFF8200803
:1038800024D5DFF8B41940688A7849684FF49073FA
:1038900003FB0211382303FB02008D1D11F82C2FAE
:1038A00004924A8912090392AA8B02920122C988C2
:1038B0004908019100F12C01009190F828302978F5
:1038C0000020FFF717FE84F004002BE0210607D547
:1038D00000F02AF83B20FFF70DFE84F0800021E085
:1038E000A10508D5DFF8C409016841F00041016075
:1038F00084F4007016E0610504D5FEF775FC84F4CD
:1039000080600FE0610405D58120FFF7F7FD84F4A6
:10391000804007E0A10443BF4FF0FF31816084F491
:103920000050002005B030BD0020049003900290AC
:10393000019000900146002301227047F8B503F082
:103940006DFEDFF84809DFF8F0680068DFF86C7793
:1039500080470446002003F0E3FF40F20140FFF7F8
:10396000D1FDDFF82C090069C0688047FFF7AAFD88
:10397000DFF84407DFF83819C06A806840790870BA
:10398000002504F02CFCDFF82C09FFF7BFFDFFF742
:10399000C1FDFFF7C3FDDFF82009002101700171AF
:1039A00041718171C171017241720022DFF85408C6
:1039B00000F10E010A70A0224A8007224A710322F8
:1039C0000A7100220A738A7200F8592F0122CA7202
:1039D0000021427081700BE070684FF4907101FB20
:1039E00005004179012908BF04F0E8F96D1CEDB22A
:1039F00038788542F0DBFFF795FD04F043FD04F0D5
:103A000069F9DFF8B81800200870DFF8B4180870FA
:103A10000120DFF8B01808700020DFF8AC1808703B
:103A20000120DFF8A81808700020DFF8A41808703B
:103A3000DFF8A0180870DFF8A0180880DFF89C18DD
:103A4000087003F026FEDFF85818096820468847FA
:103A50000020F2BD2DE9F0411446DFF8605608B1B0
:103A60002A780270DFF8D08711B198F80100087049
:103A7000002C3ED0002600271CE0C9B2DBB208555E
:103A800002F1280001791955591C427900F034F8E7
:103A9000827900F031F8C27900F02EF8027A00F055
:103AA0002BF8427A00F028F80078C9B24E1C08556D
:103AB0007F1CFFB2287887421BDA3846FFF736FDB5
:103AC0000028F5D1D8F804004FF49071F6B201FB4C
:103AD0000700DFF8CC1549683755382200680078B0
:103AE00002FB0712711C4B1C80280CBF0020012018
:103AF000C3E70020BDE8F081C9B20A55491C7047F0
:103B000038B50C00054601D1122032BDFFF70EFD7D
:103B1000C0B900F019F901FB0500016809784029D6
:103B200001D00C2032BD00210A5D431A491C102926
:103B300083F8E220F8DB012180F8E410052104F08D
:103B4000CDF9002032BD10B50446FFF7EFFCB0B947
:103B500000F035F801680978402901D00C2010BD2B
:103B600000F1F0010A78012A03D106220A77022126
:103B700002E006224A700D2104F0B0F9002010BDC9
:103B800010B50446FFF7D2FC60B900F018F890F8C1
:103B9000F810022907D1817900F1F902002000F024
:103BA00029FC002010BD01680978802903D1082173
:103BB000FFF7C0FCF5E74029F3D1112010BDDFF875
:103BC000780640684FF4907101FB0400704710B50F
:103BD000040001D1122010BDDFF85C06407808B166
:103BE0000C2010BD04F076F82078DFF8F41600F011
:103BF0001F0020704A7810404870002010BD38B572
:103C00000D00044606D0DFF8B004C06A8068007971
:103C1000844201D3122032BD03F010FE032803D0EA
:103C2000204604F021FB02E0DFF884060470012046
:103C30002870002032BDDFF88014C96A89680979CC
:103C4000884201D312207047DFF8741408700020F6
:103C5000704710B5140019D011B1012908D015E032
:103C600004F01BFB10F1800F20700DD1302010BD2F
:103C7000DFF84404C06A80680168007900EB400006
:103C8000401810F8030C2070002010BD122010BD49
:103C90002DE9F0410C0082B0074690461D4628D021
:103CA000DFF8FC633078404528D33846FFF73EFC08
:103CB000002847D100F048F801FB070704F0D6FDC3
:103CC0001B2298FBF2F21B2303FB128303B1012397
:103CD000718810181818814204DA0120FFF72EFCB1
:103CE00007202FE030781C2814DA002D18BF012D92
:103CF00001D0122026E0B8F11C0F04DB8A20FFF768
:103D0000FDFB30201EE02B46424621463846FFF799
:103D100019FC13E042462146384604F049F988B9B7
:103D20002046FDF73AFEB879ADF800000DF1020229
:103D30000120ADF8020000A900F098FB384604F01D
:103D4000F6F90020BDE8F681DFF8EC0440684FF496
:103D50009071704770B50646282E01DB122070BDA9
:103D6000DFF87845207808B1212070BD03F056FCBB
:103D7000DFF81C55286980688047700000F66211E2
:103D800089B20020FFF7E2FBDFF8580540F6070193
:103D900001804060002141808160017B01F0600171
:103DA0000173417B01F0F00141F0020141730221F6
:103DB0008173DFF83415016100214161C17B01F09D
:103DC000F00141F00101C1730C2121702969896959
:103DD0008847002070BD2DE9F04104460D46282C8F
:103DE000B8BF262D16460FDA002E18BF012E0DD0B3
:103DF000022E18BF032E09D0042E18BF052E05D0A1
:103E0000062E18BF072E01D012205BE0DFF8CC840D
:103E100098F8000008B1212054E003F0FFFBDFF820
:103E2000CC74DFF8CC1441F60A0038800022002060
:103E300078807F60B860387B00F060003873787BF2
:103E400000F0F00040F00200787360006630B87354
:103E50008020F873DFF89C043861796102808570F6
:103E600040F6C4124260C670027A02F0FE0202728C
:103E700000224272C260C27A02F0F00242F00102F5
:103E8000C272002008800021DFF86C048180C180AC
:103E9000047080214570867001728948DFF8F04314
:103EA000007804F0E1F9092088F800000022236975
:103EB000DFF848045B680021984721698969384622
:103EC00088470020BDE8F08170B50446282C01DB4E
:103ED000122070BDDFF80454287808B1212070BD8D
:103EE00003F09CFBDFF80464DFF81414766041F6FD
:103EF00009003080716100207080B0600022307B4A
:103F000000F060003073707B00F0F00040F00200C1
:103F1000707360006630B0738020F073DFF8E403E4
:103F2000306102600F22027101224271DFF8B82372
:103F30008260552202734273827300220261C27B47
:103F400002F0F00242F00102C273002008804880B3
:103F50008880002280208871002088600021DFF89E
:103F600098034170FF218170047000218180C1801D
:103F70008021C74C01720A20287000212369DFF8D4
:103F80007C035B689847216989693046884700202F
:103F900070BD70B5D14C2078092818BF0A2801D00F
:103FA000212070BD40F20240FFF7ACFA2078D249E0
:103FB000092809D1CE4800888880BD48007804F0DF
:103FC00053F90021002015E00A2815D1CC4A538866
:103FD00010889688CB801D1875198D809279802A5B
:103FE00018BF812A0FBF7F22C74B93F90030D21A26
:103FF0000A720121FFF7AEFAFFF764FA0020207081
:1040000003F047FB002070BD38B5B44C207808B1F0
:10401000212032BD03F002FBB44DB54A297B6D600F
:1040200001F0E00141F08501297341F60A00697B46
:10403000288001F0F00141F002016973002066213F
:10404000A97368808021E97340F6C410A949A8606B
:1040500029616A6148600123087A0B8000F0FE0044
:1040600008722523C87A8B7000F0F000002340F01E
:104070000100CB704B72CB60C87213800D20207092
:104080000022834CA14823695B6811469847216947
:10409000896928468847002032BD0000844C0020F2
:1040A000104800208C4C00206C4C0020B63F005083
:1040B000E81200507C4C0020B0C80100BC4C00202D
:1040C000854C0020744C0020984C00208B4C002024
:1040D000F8B5824C2178092918BF0A2963D00B2929
:1040E0001CBF0C290D295ED0464DA97C002918BFA4
:1040F000012904D003291CBF0229042903D12A79EC
:10410000002A18BF012A7BD1032918BF022902D136
:104110002B8AA02B74DB002843D0012870D1A87B08
:10412000012840D000291CBF012904290ED1FFF726
:1041300015FAFD21084236D17548007800285FD075
:104140003D494978814201D10920F2BD012004F0A6
:10415000B2F9286000260120A87303F05FFAFFF788
:1041600001FA6C48182101FB0607387B40F08000FB
:104170003873A87C012807D026B9FFF7ABF900F502
:10418000C87000E00020B860761C032EE9DB2078C0
:1041900028B9A97C6048085C2070FFF7E7F9002087
:1041A000F2BDA87B08B92120F2BD384800688047DD
:1041B0000646FFF7DFF9012804D0FFF797F92968D1
:1041C000884207D103F02AFA40F20240FFF79AF939
:1041D000012700E000270020A873286803F0A0FB57
:1041E0002846FFF7CBF9207810B903F052FA02E025
:1041F0000FB1FFF7BBF92A49096830468847CEE777
:104200001220F2BDEC490020964C0020017841F0CC
:104210008F010170C17841F02001C170817841F0B7
:10422000300181700020704710B103494978017056
:1042300000207047F44E0020B04C002070B50446BA
:104240000D461646FFF772F930B9FFF7B8FC00F5D6
:104250008E7005704680002070BD304B10B1012873
:1042600002D00AE019807047188810701888000A78
:10427000507000209070D07070471220704700007E
:104280000C4F00201C4F0020104F0020344800200D
:104290002C4F00201010044000000460944C0020BB
:1042A00038480020E84E0020C44C0020040009409B
:1042B000B94C00208C4A00209C4C0020864C0020E9
:1042C000BA4C0020874C0020884C0020BB4C0020BA
:1042D000894C00208A4C0020BE4C0020B84C0020A5
:1042E000D04E0020404E002029417671284E0020FB
:1042F000204F0020A84E0020DC4E0020020000804D
:10430000C44E0020844E0020C04C002001000080DC
:10431000BC4C0020244C0020C0D90010984C002038
:10432000DFF800F0818C00109E48902101708821F8
:104330004170012181700221C17000210171802131
:104340004171002181712021C17100219648816055
:10435000C1601F21017000214170418041601F2018
:104360009249087070472DE9F04100F078F81F4637
:104370003ED58D48007840073AD5DFF8348298F86A
:10438000000098B10C20FCF7E1FC88B3912101708A
:1043900084803E214170C580032181700681002107
:1043A000C1704781014698F8000020E01520FCF715
:1043B000CDFCE8B101210170042200F0C0F80A70C0
:1043C0004C713E224A70CD710A228A704E720322CD
:1043D000CA70CF7200220A71220A8A712A0A0A72EE
:1043E000320A8A723A0A0A73014672480078E7E094
:1043F000BDE8F081F8B500F032F82FD56A480078B2
:1044000000072BD51720FCF7A1FC070026D00120C0
:1044100038700822FF20787007F1080078600420C7
:10442000796808703E20796848700C207968887037
:1044300004207968C8707868047178684571280A22
:104440007968887131467868C01DFCF730FC3946C0
:10445000BDE8F44057480078FCF799BCF1BD04462C
:104460005048C07980060D4616467047F8B5524E42
:10447000074630780C46154620B3B8000C3080B2A1
:10448000FCF764FC00284DD0902101708770132147
:10449000417000F10C01416000EB47010C3181607B
:1044A00000210AE0436834F8112023F811208368C2
:1044B00035F8112023F81120491CB942F2DB0146DE
:1044C00030782BE0B800461C06F10B00C0B2FCF7B8
:1044D0003DFC38B30121017000F031F8042142683D
:1044E000117013214268517041688E704168CF701D
:1044F00000210EE000F01DF8137100F01AF81B0AFD
:10450000537100F010F8937100F00DF81B0AD3718D
:10451000491CB942EEDB014626480078BDE8F4406C
:10452000FCF735BCF1BD426835F8113002EB810271
:104530007047426834F8113002EB81027047FF2166
:10454000417000F10801416070472DE9F041184FBA
:10455000044638780D469046C8B118480078B0B97E
:1045600005F10C0080B2FCF7F1FB060017D091209A
:1045700030702A46FF207070B570B48006F10C00D0
:10458000B0604146FCF793FB3878314618E043466B
:104590002A462146BDE8F041FF20FFF7C1BEBDE835
:1045A000F0810000004F002020480020084F00202C
:1045B0007A480020784800207B480020284F0020BF
:1045C000BDE8F041FCF7E3BB80B518490870002056
:1045D00048708870C87008714871FFF7A5FE1449CB
:1045E0000020087001BD38B50C46200412D50F48D4
:1045F0000078FCF72AFC050009D02878032812BFB0
:104600000128E868FDF7C9F92846FCF7B1FB84F4F6
:10461000004032BD002032BD044988707047034914
:10462000C870704701490871704700007848002041
:10463000284F002010B5924C2070FCF7D7F930229B
:1046400000219048FCF765FB8F49607809780818CD
:1046500060700006000DFBF7BDFC606088B16178FA
:104660000A010021FCF755FB0020FF226178C0B24F
:1046700088423FBF616801EB00114A72401CF5D3CC
:1046800000E060702078FFF7CAFFBDE810400FF22D
:10469000FD10FCF7D1B938B50C462004784D0CD587
:1046A0002878FCF7D2FB050004D000F018F8284663
:1046B000FCF75EFB84F4004032BDE0070DD5FEF749
:1046C00073F900281CBFA878002803D0287801219E
:1046D000FCF731FC84F0010032BD002032BD3EB554
:1046E00004462078902848D16078132814D10020FF
:1046F000634A05E0A36833F8103059189170401CE4
:10470000A3789178C0B29842F4D3002935D01078BC
:104710000121FCF710FC37BD6588214600A8FEF793
:10472000CDF90199F9B1BDF80000052804D100A91F
:10473000284600F023F818E004281CBF06280728A4
:1047400013D150490C2202FB001030F8301D61B12A
:10475000807800AA2946FEF75AFA30B9BDF8000061
:1047600004280AD005E0012803D1A06808B1FDF7AC
:1047700014F901212846FCF7E0FF37BDF0B50E46DD
:10478000044630890025042889B044DB716802A8FA
:10479000FEF782F8BDF80A20182A63DA3189101D65
:1047A000814235D19DF80800C00736D57068071DD5
:1047B0009DF80900FEF7A4FA06002CD035719DF88B
:1047C000080001280BD0132821D13078042822D1E9
:1047D000BDF80A20394603A8FEF70DFA05E0BDF83A
:1047E0000A20394603A8FEF7B3F905463046FEF71E
:1047F000A7FA03A80190002000902A469DF80830EF
:10480000307A2146FEF725FA3046FEF772FA15B1E6
:104810002046FEF7C2FA09B0F0BD9DF80800122844
:1048200017D17068011D03A8FEF7C8F90500EED185
:10483000144881890029EAD003A9019100229DF83A
:1048400009109DF80830807B00912146FEF701FA9F
:10485000DDE79DF80910ADF8005000AA2046FCF7EE
:1048600039FFD4E70120ADF800001720ADF80200B1
:1048700000AA9DF809102046FCF72CFFCBE70000AA
:1048800070480020A44700206C47002010B5044663
:104890004FF6FE7084420ED0012906D002290AD1BB
:1048A00001212046FCF74CF928B92046BDE810400C
:1048B0000021FEF773BA10BD98494870704710B5D3
:1048C000964C2070FFF7A8FE2078BDE81040052127
:1048D000FCF7BABE7CB5914D28780C46210419D559
:1048E000FCF7B3FA060084F4004411D000F057F846
:1048F00058B93078A22806BF894800786878FF2820
:1049000003D03146FCF743FA02E03046FCF730FAB8
:10491000204676BDE10709D5A86820B141680800A6
:104920001CBF0020884784F0010076BDA10709D58F
:10493000686820B1416808001CBF0120884784F0E6
:10494000020076BD610726D5764E3188E9B1481E52
:10495000308080B2E0B904F009F848B17249012012
:104960000870686820B1416808001CBF01208847B2
:1049700002F0AEF800A9FEF777FA00A802F019F8E5
:104980001D2001F033FF308002E00421FDF78AFC96
:1049900084F0040076BD002076BDFCF7E8B838B599
:1049A00002780124912A4FF6FF7103D0A22A00F069
:1049B0008E8092E04278594B052A4DD00E2A04D0C1
:1049C0000F2A4CD03E2A6DD087E0828841F209053B
:1049D000511B32D040F6F975491B34D0C91E36D070
:1049E000491E09D0891E022906D9C91E1BD0491E9D
:1049F00015D0891E08D070E0596800296ED009686A
:104A00000A006BD0884766E048490968002965D0EC
:104A10004B68190062D0014642F20E0040E0816806
:104A2000097800295AD09968002957D00B681900D5
:104A300054D00146104698474DE08068411C0078EC
:104A400001F07BFF47E0806801F093FF43E080685E
:104A5000007801F0ECFF41E002F05FFA3EE082886E
:104A600042F20D05531B13D09B1F02D09B1F0FD08A
:104A700033E02F4B1B888B420AD02E49096869B35B
:104A80000A6811002AD0014642F21300904722E042
:104A90002649096811B34B6819001FD0014610461A
:104AA000984718E08178012907D016D3032901D04F
:104AB00006D312E0024680880BE002F0D6F90DE042
:104AC000996859B149680A0008D0884706E002464B
:104AD000408800F005F8044600E00024204632BD7E
