:10000000E8430020A96E000001CA011001CA0110D6
:1000100001CA011001CA011001CA011001CA011070
:1000200001CA011001CA011001CA011001CA011060
:0C00300001CA011001CA01103FCA0110F2
:100100003C0000000000000000000000340100007E
:1001100000000000000000000100000000000000DE
:1001200000000000000000000000000001000000CE
:0C013000000000000800000000000000BB
:10013C003400000000000000000000006801000016
:10014C0000000000000000000100000000000000A2
:10015C00010000000000000000000000080000008A
:04016C00000000008F
:1001700030000000000000000000000098010000B6
:10018000040000000000000001000000FFFFFFFF6E
:10019000FF00000001000000080000000000000057
:1001A0002C0000000000000000000000C40100005E
:1001B000040000000000000001000000FFFFFFFF3E
:0C01C000FFFFFFFF08000000000000002F
:1001CC0034050000E401000099A1011095A701106D
:1001DC00A5C2011009B2011045B8011000000000C1
:0801EC00000000002E000000DD
:1001F40028000000000000000000000014020000BD
:100204000000000000000000FFFFFFFF00000000EE
:080214000800000000000000DA
:10021C00300500003002000069C201106DC10110F0
:10022C001FC2011095BA0110000000000000000070
:04023C00300000008E
:10024000300500005402000075C20110A9B601106B
:100250009DBF011049B60110000000000000000021
:040260003100000069
:1002640024000000000000000000000080020000E4
:100274000000000000000000000000000800000072
:040284000000000076
:10028800240000000000000000000000A40200009C
:10029800000000000000000000000000080000004E
:0402A8000000000052
:1002AC00240000000000000000000000C802000054
:1002BC000000000001000000000000000800000029
:0402CC00000000002E
:1002D00000000000FC0B00200400000000000000F3
:1002E000000000002000000070010000300000004D
:1002F0001C020000040C00200400000000000000AC
:10030000000000000C000000300400001800000095
:10031000400200000C0C002004000000000000005F
:100320000000000024000000480400001800000045
:1003300000000000140C0020040000000000000079
:100340000000000010000000A00100002C000000D0
:10035000CC0100001C0C0020040000000000000084
:1003600000000000200000006402000024000000E3
:10037000FFFFFFFF240C002004000000000000002D
:100380000000000028000000880200002400000097
:10039000FFFFFFFF2C0C0020040000000000000005
:1003A00000000000580000003C0100003400000084
:1003B000FFFFFFFF340C00200400000000000000DD
:1003C00000000000100000006004000018000000A1
:1003D000FFFFFFFF3C0C00200400000000000000B5
:1003E000000000001C000000AC020000240000001F
:1003F000FFFFFFFF440C002004000000000000008D
:100400000000000038000000F40100002800000097
:10041000FFFFFFFF4C0C0020040000000000000064
:100420000000000054000000000100003C0000003B
:100430001800000000000000000000004004000060
:080440000800000000000000AC
:100448001800000000000000000000005804000030
:08045800080000000000000094
:100460001800000000000000000000007004000000
:0804700008000000000000007C
:0804780001000000186F0000F4
:040484000100000073
:0404880000000C0064
:04048C0000000D005F
:040490003200000036
:040494000200000062
:04049800180A00201E
:04049C00000200005A
:0404A0000000000058
:0404A40001CA011078
:0404A8000000000050
:0404AC00000000004C
:0404B0000800000040
:0404B4000000200024
:0404B800E009002037
:0404BC00010000003B
:0404C000F40A00201A
:0404C400080000002C
:0404C8000000000030
:0404CC00000000002C
:0404D0000000000028
:0404D4000000000024
:0404D8000000000020
:0404DC00010000001B
:0404E000480A0020A6
:0404E400060000000E
:0404E800010000000F
:0404EC0030090020B3
:0404F0000000000008
:0404F4000000000004
:0404F80000020000FE
:0404FC0000000000FC
:020502002A00CD
:020504000100F4
:020506002500CE
:020508003000C1
:02050A003100BE
:02050C002E00BF
:02050E000100EA
:0105100001E9
:0805140004000000D46E000099
:08051C000000000000000000D7
:0405240000000100D2
:0405280000000300CC
:04052C0087C401106F
:04053000380500008A
:040534003805000086
:0405380000000000BF
:04053C00800000003B
:040540008000000037
:0405440000000000B3
:04054800F40A002091
:04054C00FF1B000091
:040550002000000087
:04055400C06E000075
:04055800306C000003
:04055C000DC30110BA
:0405600089130000FB
:040564008B130000F5
:0405680099C801101D
:04056C009BC8011017
:040570000000000087
:040574002A19000040
:040578000C6B000008
:04057C00246B0000EC
:04058000F46A000019
:0205840008006D
:0205860009006A
:02058800010070
:02058A0000006F
:01058C00016D
:040590000000000067
:040594000000000063
:04059800000000005F
:04059C00000000005B
:0405A0002512000020
:0405A40085120000BC
:0405A8000511000039
:0405AC00AF1200008A
:0405B0006D110000C9
:0405B400231100000F
:0405B800AD11000081
:0405BC00F112000038
:0405C0007D1B00009F
:0405C400831D000093
:0405C800871D00008B
:0405CC000800000023
:0405D0002400000003
:0405D400180000000B
:0405D80028000000F7
:0405DC0020000000FB
:0405E0003C000000DB
:0405E4000C00000007
:0405E80034000000DB
:1005EC00DFF800F0F5C00110DFF800F049BA011097
:1005FC00DFF800F025C20110DFF800F0C1C20110D5
:10060C00DFF800F0E3BF0110DFF800F013C10110B8
:10061C00DFF800F0D5C00110DFF800F095C0011034
:10062C00DFF800F00DA80110DFF800F0BDBE0110DE
:10063C00DFF800F02DBF0110DFF800F0E1B501107C
:10064C00DFF800F021C10110DFF800F0D5C2011075
:10065C00DFF800F0D9C20110DFF800F0F1C501108D
:10066C00DFF8D400007D704738B5DFF8D400DFF830
:10067C00CC500068EFF3118480F31188A868002136
:10068C00FFF7CAFF6969081AA969814238BF0020BF
:10069C0084F3118832BD00002DE9F041DFF8A00091
:1006AC00DFF898400768EFF3118887F31188A0688A
:1006BC000121FFF7B1FF0121A1830021E1836569CD
:1006CC0021682268461B801A691A884204D20020CD
:1006DC00A08388F311882AE088F31188002005E0B4
:1006EC004519361A29460120FFF79AFF8642F7D2A0
:1006FC00EFF3118887F31188E18B012903D1294687
:10070C000020FFF78DFFA16910F1010F08BF08460B
:10071C0003D0801B814238BF08464119FFF784FF84
:10072C00012020840020A083256088F31188BDE877
:10073C00F081808A70470000A4010020780100201D
:10074C00106F0000DFF8041009687047106F00008C
:10075C0000F016BE80B5002301223421DFF8E80931
:10076C0001F0CCF800B10120C0B202BDDFF8BC1A18
:10077C000A68002812BF42F00100500840000860CF
:10078C00704700007047FEE710B582B0042001F0FE
:10079C00E9F8022818BF03280DD1032000901C2370
:1007AC004FF040520021DFF8A00901F084F8BDE8B9
:1007BC001640042068E0DFF89419DFF8940A096801
:1007CC004418DFF88C19DFF88C0A0968B0FBF1F1DA
:1007DC002046FFF711FF2046BDE81640FFF710BF7B
:1007EC00000080B5DFF86C090078DFF86C0901684F
:1007FC008908890041F00101016001F0C0F801F0A5
:10080C004AF9DFF85819002008600220DFF888192F
:10081C000968C9688847DFF8540A01684908490023
:10082C00016000F018FA042000F010F900F0B1BCDF
:10083C0000000022012904D1012807D1DFF85C094E
:10084C0003E0012802D1DFF82C0A02681046704739
:10085C00DFF8FC0900797047000001F0A5B8000032
:10086C0010B5DFF83C160968EFF3118481F3118899
:10087C00DFF8DC19C9880120012908BFFFF76AFFDE
:10088C0084F3118810BD000030B5DFF81416DFF8C2
:10089C0084390A68EFF3118182F31188B0FA80F27F
:1008AC00C2F11F029A5CB0FA80F4C4F11F04551E09
:1008BC001D5505D1DFF89829136823EA0000106054
:1008CC0081F3118830BD00002DE9F041FFF73AFFAC
:1008DC00EFF3118481F31188DFF87C190A5C531E45
:1008EC000B5444D1DFF87419DFF8748901EB8005DF
:1008FC002E786F88300618D5D8F80010096A38465B
:10090C008847D8F80010896A38468847D8F800100C
:10091C00096B38468847DFF84C1901200860DFF86E
:10092C00480900688007FAD514E0700606D5DFF890
:10093C00A81951F82710002088470BE0D8F80010B0
:10094C00896938468847D8F80010496B384688477B
:10095C000228F8D106F03F003F2818BFFFF7B4FF7C
:10096C00687800F03F003F2818BFFFF7ADFF84F315
:10097C001188BDE8F08110B508B1140001D1032035
:10098C0010BD8160C26003610146DFF8E428DFF826
:10099C004C0912681044FFF74BFE002010BD0000FC
:1009AC00F8B50446DFF8F804DFF8AC180068EFF38C
:1009BC00118580F311880A5D531C0B55002A3ED11A
:1009CC00DFF8981801EB8407387800F03F003F28D7
:1009DC0018BFFFF7E5FF787800F03F003F2818BFFD
:1009EC00FFF7DEFF7E883878DFF87478010613D5C0
:1009FC003968C969304688473968496A304688473A
:100A0C003968C96A3046884700F038F8DFF858086A
:100A1C0000688007FAD512E0400606D5DFF8B81852
:100A2C0051F826100120884709E039684969304699
:100A3C0088473968496B304688470128F9D185F3D6
:100A4C0011882046BDE8F24001F082B9DFF850145D
:100A5C000A68EFF3118182F31188DFF8F427136829
:100A6C0003431360B0FA80F0C0F11F00DFF8A42735
:100A7C00135C5B1C135481F311887047DFF8E41787
:100A8C0001200860704700002DE9F04F4FF000087E
:100A9C000021012883B0C1468A4618BF022412D116
:100AAC00DFF8FC03DFF834780268EFF3118082F38F
:100ABC0011883A79012A06BF02223A71012180F38A
:100ACC00118809B10624BDE0FFF78AFD00900120D2
:100ADC0000F0E6F8044610B101203871AFE0FFF7E2
:100AEC0097FDDFF824180190C1F80090012000F068
:100AFC0039FF012804D1002001F00AF94FF0010858
:100B0C00DFF8DC47DFF850572168896800208847F8
:100B1C0000F0A1F8687C08B14FF00109287C08B1FD
:100B2C0049F00209E87B08B149F00409E87ADFF8DA
:100B3C002C6718B1A16AF08D096B8847A87A18B197
:100B4C00A16A708D096B8847FFF798FF49F0200068
:100B5C00A16A896988470120FFF708FE3878C00729
:100B6C0048BF4FF0010A12D4DFF8940701F01CF9CA
:100B7C008346BBF1040FF7D000F067F880088000C3
:100B8C0008600321A26CDFF87807526890470020B8
:100B9C0001F012F900F05FF8A06A806B8047BAF19F
:100BAC00000F0AD1A26CDFF85807526859469047DB
:100BBC0000F04BF840F003000860012021688968C0
:100BCC008847DFF8400700688006FAD5B8F1000FB7
:100BDC001CBF012001F09CF8A16A4969484688476E
:100BEC00A16A496B484688470128F9D1E87A18B1BF
:100BFC00A16AF08DC96A8847A87A18B1A16A708D6C
:100C0C00C96A8847FFF73AFF0020FFF7AFFD0320C2
:100C1C003871042000F044F8DFF8EC16012008606D
:100C2C0000F019F801F0D6F9082000F039F8044664
:100C3C00012038710198FFF7FFFC01F056F900987C
:100C4C00FFF7D2FC2046BDE8FE8FDFF8CC06DFF8BC
:100C5C00C81600687047DFF8A406006870470000EB
:100C6C0038B58F48DFF874560068EFF3118480F3C1
:100C7C001188E888012803D100F0EAFE0020E88002
:100C8C0084F3118831BD000010B5FFF75BFDEFF365
:100C9C00118481F31188FFF7D3FC84F3118810BD04
:100CAC0038B500F02AF80844FFF7AEFC002540B92F
:100CBC00204600F008F820B1DFF864060068804791
:100CCC000225284632BD70B500F017F845182846A5
:100CDC00FFF7BAFC0646B068204206D03169F268CC
:100CEC0020469047C0B2012806D03046FFF7B0FC32
:100CFC000646AE42EFD1002070BDDFF874150968CE
:100D0C000446DFF8D805704730BF704770B501F066
:100D1C005DF9DFF83C552E6806F00C000C284BD022
:100D2C00700727D4FFF7A0FC044600210120FFF731
:100D3C0080FDA0421ED2DFF8BC0300680544DFF83A
:100D4C0010040668DFF8D4050068B0FBF6F0211A31
:100D5C002846FFF751FC2846FFF752FC4FF47A70F7
:100D6C00B0FBF6F200210120FFF78EFE2846FFF7BC
:100D7C003FFC23E030071FD4DFF8F004DFF8E04439
:100D8C00DFF87855F10601685ABF4908490041F06F
:100D9C0001010160DFF88005016841F00301016089
:100DAC00202021688969884728682068806B8047E3
:100DBC0001202860286801E0FFF7A6FF01F00AF97E
:100DCC00BDE8704001F0BCB810B50C1801F0FEF88D
:100DDC00401E8041C00FDFF85C150A68002AFCD069
:100DEC00246801220A6008B101F0F4F8204610BD15
:100DFC0080B50420FFF72AFE0820FFF727FE0E20FF
:100E0C00FFF7CEFDDFF81C05DFF81C150068C0F3FA
:100E1C00815003280CBF012000200880DFF80C054E
:100E2C0002680AB1012002BDDFF80C3540221A60BD
:100E3C000122C2610020486002BD10B5DFF85813D2
:100E4C00DFF8EC4482B009680968202088470F203D
:100E5C002060072341F61D5060604FF4C0720220E1
:100E6C00009000F0C7F8DFF8D4040121016001689C
:100E7C008907FCD501212161DFF8AC4421880129C7
:100E8C0007D1002101610220202100F08FF8012000
:100E9C0004E00121002000F089F80220606013BDFD
:100EAC00106F00002DE9F041DFF89404DFF878446E
:100EBC0082B0016842688A4342600161606810B97F
:100ECC00BDE8F341B9E70128DFF878141AD1022004
:100EDC00606008684BF2F52148436188000A11B143
:100EEC000021618006E0DFF86014096821F07F4181
:100EFC0040184008DFF854140860000C48600120CA
:100F0C0088600CE002280FD10868B0F5C06F02D1E0
:100F1C000020606045E00321616000F06FF8012162
:100F2C00BDE8FC41002041E003283DD10020606079
:100F3C000868A0F5C065A06800F0B2F8064628461F
:100F4C0000F0AEF886422CDAA669284600F0ACF820
:100F5C008019A061E56860697B4E85420ED0A76957
:100F6C00A7F1100000F09CF880462069103800F0C2
:100F7C0097F8804502DABFB200970BE0ADB200954E
:100F8C0008234FF47F423021304600F094FC206956
:100F9C0080B2009012234FF4F8020421304600F086
:100FAC008AFCBDE8F3418AE0BDE8F38170B50D46DB
:100FBC00DFF89C4382B0032121600021DFF89463A9
:100FCC00316031688907FCD480B20090052360221F
:100FDC0000F010F80120306030688007FCD5A56166
:100FEC00002020600821DFF85003C160016001205F
:100FFC00206073BD0021544800F05DBC70B50646FE
:10100C00514C82B030212046FFF7DEFEDFF818533A
:10101C00C0F30720E86004212046FFF7D5FEC0F39B
:10102C0084402861A6F5C060A8602E6900F03CF8E9
:10103C008019A861A969E868022909DA401E6FF0D5
:10104C003F039842B8BF184610310BD5002109E078
:10105C001E2908DB401C4028A8BF3F20103920293E
:10106C00A8BF1F21A9616861082380B200904FF4CA
:10107C007F42302100F011F80120009011234FF431
:10108C00003200F009F8A86980B2009012234FF4E6
:10109C00F80200F001F873BD0421204600F00BBCEF
:1010AC00002848BF4042704700284CBF6FF0010138
:1010BC00022101EB4000032190FBF1F0704780B559
:1010CC00DFF878020021016001688907FCD4002157
:1010DC00016041600120DFF8541208600E20FFF718
:1010EC00F3FB0820FFF7D0FBBDE802400420FFF71C
:1010FC00CBBB0000F46E000010B504460020D4E910
:10110C000A2347F6906100F069FF0123994228BF3A
:10111C004FF0FF3010BD10B50C4600F0D7FF011D8D
:10112C00201AB0F1004F05D8081BB0F1004F38BFA2
:10113C008C4200D20C46DFF824221268526A2146F7
:10114C00BDE810400120104700A00C40F86E0000D4
:10115C00146F0000D72B00200440034040100940BE
:10116C002DE9F04180460A46D8E90A01D8E90C4538
:10117C00A0FB026701FB0277A6196F41340C002219
:10118C0044EA07414046FFF7C6FFC8E90E67BDE8D1
:10119C00F0814FF0FF3002BDA0010010046F000081
:1011AC00F8B50546DFF8B801DFF8B8610068DFF87C
:1011BC00B871EFF3118480F31188306840F080002F
:1011CC0030600120B96849688847F96A096A1420B7
:1011DC0088472869BA68526AB0F5802F34BF042159
:1011EC00010C012090473A68126823210020904797
:1011FC00B968C96901208847306820F4E02040F4C0
:10120C0080303060306840F00100306084F3118829
:10121C00F1BD0000B02B0020DFF8540103684068DA
:10122C000022002110185941704700000C20084082
:10123C00DFF82811DFF8200110B509684468496807
:10124C00012088476069A169BDE81040084700008B
:10125C006C080020A08601006C2B00203C6B000069
:10126C00B801001028200860282008408C21084074
:10127C00FC6E0000086F0000F8B504460D46FFF741
:10128C00CBFFD4E90A6732463B4600F0A7FE3DB1DE
:10129C00A6FB002306FB013307FB0033C4E90C2338
:1012AC00F2BD38B5DFF8BC40DFF8C050206840080C
:1012BC0040002060206840F0800020600120E06247
:1012CC00E06A2968496801208847696A096A14201C
:1012DC008847E06A31BD0000E00B00206C0800205C
:1012EC009001001080B500F004F8000C40EA0140B9
:1012FC0002BDDFF8800000688EE700002C2009405A
:10130C0000400340141009400C40094009B9DFF8B3
:10131C006810FFF7A1B90000242208400C6F0000F0
:10132C00006F0000B43F0050D80A002004800C402D
:10133C000C400C4000800C402C500C4034600C4095
:10134C0028500C4008400C40102009403C600C40D8
:10135C0000400C4038600C40E40100208C0100106F
:10136C00106F000000200940840100108C01001057
:10137C0008200940EC010020A0010000FEE77047A6
:10138C0010B5DFF86404046814F1010F08BF0024E1
:10139C0000F010FFDFF85414002008600120DFF883
:1013AC0050140860DFF84C140860DFF84C04006837
:1013BC0028B1DFF848040068204600F023F8DFF875
:1013CC004004DFF8402401688908890041F000518D
:1013DC0041F005010160DFF8300401686FF31B4137
:1013EC0011430160DFF824040168C1F301310129C4
:1013FC0007D10168DFF81824114041F40032026073
:10140C00016010BD2DE9F84F0446DFF808140120E7
:10141C000860DFF8040401680029FCD0DFF8FC53F5
:10142C00DFF8FC83C0202860D8F80CA0D8F808108E
:10143C00DFF8F00389075DBFD8F80410090C41F000
:10144C00F00172210170DFF8E0130968D8F80C2064
:10145C00C1F304611629A8BF203901EB2271491C84
:10146C006FF009029142B8BF114601F01F0141F41F
:10147C00F8510183CAF3C061DFF8B00381F00101B8
:10148C000160CAF3806181F00101816014B9DFF859
:10149C00A0732DE0DFF89C030068C0F383615FEA62
:1014AC008A32C0F38F2021D44FEA0A4212160AD591
:1014BC004FF6FF73400804D11846490804BF0121B8
:1014CC000120521CF6D4012A10DB400040F0010030
:1014DC00B0F5803F21BF0120490041F001011029E6
:1014EC0024BF0F214FF6FF70521EECE740EA014774
:1014FC0000F06CFD401E8041C00FCF4E31680029BA
:10150C00FCD0DFF83893C9F810700121316008B1B4
:10151C0000F060FD0CB9D82008E0C64A10681168CC
:10152C00C0F3870001F0030140EA0120009040F273
:10153C00FF3700233A462C21C14800F0BCF91CB1FE
:10154C00BC48C06A8704BF0C00F040FD401E8041BF
:10155C00C00F31680029FCD0C9F81470012131602A
:10156C0008B100F037FD002C0FBFB64FB148406AF0
:10157C0020F0033700F02AFD401E8041C00F316877
:10158C000029FCD0C9F80C700121316008B100F0C1
:10159C0021FD0CB9AC4F04E0A648AC49006A01EA45
:1015AC00000700F013FD401E8041C00F3168002978
:1015BC00FCD0C9F808700121316008B100F00AFDB7
:1015CC000CB9A34F20E09B48806AD8F80830DB07A1
:1015DC00C0F30352C0F303410BD4D8F804301F05F9
:1015EC0002EB27721B0482F3040201EB237181F3DB
:1015FC000401090441EA025182B242EA0107222C99
:10160C0024BF00F08040074300F0E0FC401E804106
:10161C00C00F31680029FCD0C9F804700121316079
:10162C0008B100F0D7FC2220222C824F06D3F86B95
:10163C00000F00F00100400040F0200085490872C6
:10164C001120222C05D3F86B400F00F0010040F064
:10165C001000202C08724FF0000B07D3B86CC10C93
:10166C0001F44071C0F3845040EA010B00F0AEFC71
:10167C00401E8041C00F31680029FCD0C9F820B051
:10168C000121316008B100F0A5FC6020202C06D3AC
:10169C00B86C000D00F00300400040F060006D4994
:1016AC00C8728020222C06D3F86BC00E00F001000B
:1016BC00C00040F080000870222C4FF47C4006D310
:1016CC00F86B400D00F03F00800040F47C40624914
:1016DC00DFF888B10880202C0AD3B86C0203810A89
:1016EC0002F47C1242EA815100F00F0041EA003B07
:1016FC0000F06CFC401E8041C00F31680029FCD00A
:10170C00C9F800B00121316008B100F063FC544805
:10171C0044210170882181700CB9302105E0F96BEE
:10172C00C90C01F0030141F03001C1704FEA9A502D
:10173C0010F0030003D002283CD012D33CE001216E
:10174C00042000F0EDF843F2BD70E86386202864B5
:10175C0001206864434801680029FCD000206864BB
:10176C002EE0012000F0FEF804462146042000F093
:10177C00D7F8042000F0F6F8A042FAD1D8F80030DF
:10178C001802000A81B2E963000C28640120686425
:10179C00344801680029FCD0002068644FF06022B6
:1017AC00180E314B1B681B68072198474FF480605B
:1017BC00C9F83800032100E00221042000F0B0F841
:1017CC00F8692A4900F03F00087047F618002849CC
:1017DC000880104927480068002028600860012014
:1017EC0025490860BDE8F18F1C1300508404604249
:1017FC005C600C4008220443800128430001204314
:10180C000440034000003901482003400400094013
:10181C00FFFFFCFC101009409402224300600C40B6
:10182C00A83F005056620840B812005000002043F8
:10183C00FF0F0F005013005000800C4008A00C400C
:10184C0000A00C40000088688A766800FFFFFC004E
:10185C00273F710041A10C40DCA10C4000803F40AF
:10186C0005A10C4084088C43B40100100BB00C4053
:10187C0070B00C402C2009409404604238B50446EA
:10188C000D4600F0A3FB401E8041C00F1A490A68A8
:10189C00002AFCD0012D02D0022D02D003E02478C6
:1018AC0002E0248800E0246801220A6008B100F0FC
:1018BC0091FB204632BD38B500EB4100102B00F5F2
:1018CC00007402D3103B241D120C0498984040EA7B
:1018DC00024500F07BFB401E8041C00F06490A68A0
:1018EC00002AFCD0256001220A6000281CBFBDE83C
:1018FC00314000F06FBB31BD00800C4038B51D4647
:10190C000818102D144602D3103D801C240C022103
:10191C00FFF7B4FF04EA000188B2E84032BD0000D2
:10192C0038B50446E0070D4607D5A8B20090002351
:10193C00012200216B48FFF7BEFFA00707D5A8B214
:10194C0000900123022200216648FFF7B4FF6007D4
:10195C0007D5ADB2009502230C2200216148FFF798
:10196C00AAFF31BD0146042907BF1D234FF0C04219
:10197C001C234FF080525B483421FFF7BFBF10B5DA
:10198C00594C2168896801208847584801688906A4
:10199C00FCD5216909684020884721698968402065
:1019AC0088471128F9D110BD70B5054600F08EFBA3
:1019BC004F4C6168401A4FF47A714843060C00F0A2
:1019CC0003FC2169401A48BF4042711940F6B932F4
:1019DC00914207D2062805DAA068E168814201D35A
:1019EC00226852B943494A68D2074FF4FA6016D4B8
:1019FC000868C0B27D21484308E0081A3E494843B4
:101A0C00000C00EB9000904238BF1046C82801D261
:101A1C00C82070BDB0F57A6F88BF4FF47A6070BD86
:101A2C0010B582B00120009000232E4C01221946E3
:101A3C002046FFF740FF01200090034602220021C0
:101A4C002046FFF738FF00F041FB2949886013BDA1
:101A5C0080B50120FFF786FF01281AD00023012250
:101A6C0034212048FFF74AFFA0B124480068804782
:101A7C0000F02CFB1E498B680A68C860A2EB92022E
:101A8C00C01A1D4B5843000C0860904238BF1046DA
:101A9C000860012002BD10B582B000200090014604
:101AAC00104C002301222046FFF705FF0020009078
:101ABC000146012302222046FFF7FDFE1C234FF0B6
:101ACC00805234212046FFF719FF10B10B480068F3
:101ADC008047074C00F0FAFA606000F075FB20615B
:101AEC0013BD000000A00C40900100101410094020
:101AFC00802B0020AC3F005040420F0080000010B3
:101B0C00DFF800F049C10110DFF800F019C2011034
:101B1C00DFF800F00DC30110DFF800F081C60110F2
:101B2C00DFF800F095B70110DFF800F08DC201105E
:101B3C00DFF800F03DC20110DFF800F009C301101E
:101B4C00DFF800F045C00110DFF800F0D1C701103C
:101B5C00DFF800F067BE0110DFF800F021B30110D0
:101B6C00DFF800F011C80110DFF800F021C80110F7
:101B7C000C2811D0192814D01D2817D020281AD0C1
:101B8C0021281DD0252820D02A2823D02B2826D048
:101B9C002C2829D000207047DFF8E4010068006889
:101BAC007047DFF8DC01006840687047DFF8D0014F
:101BBC00006880687047DFF8C8010068C06870472B
:101BCC00DFF8BC01006800697047DFF8B4010068F9
:101BDC0040697047DFF8A8010068C0697047DFF8FA
:101BEC00A0010068006A7047DFF894010068406A41
:101BFC00704700B58BB00A216846FFF789FF0BB020
:101C0C0000BD00B581B0FEF7A3FDDFF87801DFF869
:101C1C0078110068884218BF00F034F8DFF86C01C6
:101C2C00B0F5B26F03D001B05DF804EB2BE001B05E
:101C3C0000BD00B581B00FF22100FFF76DFFFFF77B
:101C4C006FFFFFF771FFFFF773FF01B05DF804EB57
:101C5C00FFF772BF0000000000B581B0FEF7D8FCA2
:101C6C00FEF7BEFC01B05DF804EB0320FFF768BF84
:101C7C0010B504460320FFF763FF2046BDE8104073
:101C8C00FFF762BFFEE7FEE700B581B0FFF760FF2C
:101C9C00DFF8FC00C06801B05DF804EBFFF75CBF37
:101CAC00DFF8F010DFF8F00088617047DFF8EC1017
:101CBC0001280CBF40F2FF70002008600020704724
:101CCC0030B581B0FFF71CFFDFF8D4500446E8882C
:101CDC0020B1FFF7BDFE60B10020E880FFF788F867
:101CEC0005461020FEF7DCFF012D0BD1FFF7A5F800
:101CFC0008E0052105F13000FEF77EFC05F130000F
:101D0C00FEF77EFC204601B0BDE83040FFF7FCBE7C
:101D1C0010B5012818D1FFF725FE012816D0FFF7C2
:101D2C007FFEDFF87C400120E08004F13000FEF7FC
:101D3C005FFC052104F13000FEF75EFC04F130007D
:101D4C00FEF75EFC002010BDFFF7A5FE002010BDC5
:101D5C0010B501240E2805D10120FFF703FE012840
:101D6C0005D003E0DFF83C10085C00B900242046E5
:101D7C0010BD00207047FFF7F3BEFFF7F5BE000063
:101D8C00F001002098CA011070472820900500002F
:101D9C0078010020440100200004000000000460D1
:101DAC006C0800206C2B00200068010701D5042072
:101DBC00704700F003007047F8B505467748784C3B
:101DCC000068800705D50820A07176497648086020
:101DDC00F1BD00F0F9F9754A1268002112F0030FF9
:101DEC0018BF0121520748BF41F002010DB141F06B
:101DFC00040194F90720821A052A02DAA279914289
:101E0C0059D0A0F10F0200250023002A1FD402EBA9
:101E1C0002121312082B28BF07231D46072D28BFBB
:101E2C000625634E06EB850756F825507F687E1B0A
:101E3C00F5B24F0744BFC6F307277D198F0744BF80
:101E4C00C6F307477D19CF0748BF05EB1665584EFB
:101E5C0056F82370FEB25FEA417C44BFC7F3072CEF
:101E6C0066445FEA817C44BFC7F3074C66445FEA73
:101E7C00C17C48BF06EB1766A2EB03226A434D4BAD
:101E8C001D681B68A1718032092A92412D17C5F17A
:101E9C0008053427D243DBB27D436B4306EBD27289
:101EAC00B3FBF2F2B2F5803F28BF4FF6FF7200F39E
:101EBC000700A280E07140480068A18820600020E3
:101ECC001F2904D21F21A18004E04908401CB1F550
:101EDC00007FFAD20F39090940EAC100314A37496B
:101EEC000843106000205060F1BD10B53448006804
:101EFC0084B224B300F068F9294991F90720904283
:101F0C0005DA6FF07F029042B8BF1046C87188881E
:101F1C00844201D28C8010BD274A12680B68D21AF9
:101F2C00921C202A28BF1F22231A520823FA02F4DB
:101F3C002018B0F5803F28BF4FF6FF70888010BD89
:101F4C002048006800B9704710B41F498A6802F035
:101F5C004063B3F1406F1ED04B689B071BD40F4BF3
:101F6C001C680968C1F303511C31090114F0050FF9
:101F7C0006D088420FD224F00500186010BC7047C0
:101F8C00814208D2100158BF44F00104500158BFDF
:101F9C0044F004041C6010BC7047000000000940B1
:101FAC00B82B002030100940FDFDA400242208406D
:101FBC009C130050B43F00500820094000FFA4803F
:101FCC003410094028500940AC3F0050EFF310800A
:101FDC0072B67047EFF3108062B670471B4213D194
:101FEC00094236D12AB18446B0FBF2F002FB10C292
:101FFC00704700F0FDB8FCD30022002370470B00A3
:10200C000200002100207047904271EB030CF6D3C4
:10201C0070B5B1FA81F4B3FA83F52C1BA340C4F16B
:10202C00200532FA05F63343A2405FF00046E64045
:10203C0002E05B085FEA3202841A71EB030524BFED
:10204C00204629467641F4D302000B0030000021D3
:10205C0070BD012ACFD970B5140C20D0B1FA81F41F
:10206C00B2FA82F5C4F120046419B4F12006D6D377
:10207C00B2405FF00044F440002502E052085FEAF1
:10208C003303C61A71EB020E24BF3046714664410D
:10209C006D41F3D302000B002000290070BD0C46EB
:1020AC00B1FBF2F102FB11452D0445EA1045B5FBDD
:1020BC00F2F402FB145580B240EA0545B5FBF2F090
:1020CC0002FB105240EA044070BD000038B5FFF727
:1020DC007DFF06490C684D68401E8041C00F18BF3B
:1020EC00FFF778FF280C40EA044032BD0820094075
:1020FC002D480068000C00F00700032828BF4FF0A3
:10210C00FF30704729490968C1F30F314BF69A1219
:10211C0091424FF0FF3001D1002070474BF6BE12B8
:10212C00914201D1012070474BF62032914208BFF9
:10213C000220704710B41D491D4B0A681B680968C2
:10214C00120FDBB2802B28BF0023C1F30F314BF6EB
:10215C009A14A1424FF0FF300CD1012A08D0032A67
:10216C001DD0072A1DD0082A08BF03F1160013E062
:10217C000A2011E04BF6BE14A14206D1002AF7D07A
:10218C00022A09D103F1140006E04BF62034A142D7
:10219C0004BF002A03F10A0010BC40B2704714209F
:1021AC00FAE71520F8E700009412005018130050BD
:1021BC00A010005080B5FFF7A5FF18B9FFF7BAFFC4
:1021CC00162800DAFEE701BD0748084A8168127834
:1021DC000068C90352B2A0F54070C9135043A1EB7B
:1021EC002010803000127047285009400C1300500A
:1021FC0070470000DFF800F0D9C10110DFF800F0E3
:10220C0041AC0110DFF800F025B1011000B583B02E
:10221C000821ADF8001001900321ADF802106846BA
:10222C00DFF8801A0968884707BDB0F5156F01DD26
:10223C000020704740F6D301884201DB0120704733
:10224C0040F69401884201DB02207047032070475E
:10225C0010B500F017F800F00EF88847DFF8480AC0
:10226C0000680B2100F036FDBDE810400022032170
:10227C00092000F07FBDDFF8341A606290200968F5
:10228C0009687047DFF8284A0FF6402104F1340042
:10229C0000F0F6BE80B50420FEF7D8FBDFF8141A68
:1022AC000020086001BD00B58FB008233C2200213E
:1022BC006846FFF79FFFDFF8000A00F15001079115
:1022CC0000234FF4217108916A46012106910FF207
:1022DC009521FFF797FF0FB000BD10B592B000F03D
:1022EC004EFA0120DFF8BC19DFF8C4490968ADF8D3
:1022FC00020068468847BDF80400E0830298A0629B
:10230C0004F1880001F017F8E0620023042001902A
:10231C004FF47A720020009004F140000FF2A96192
:10232C0000F0BEFF1020019000230020009047F227
:10233C0030520FF2996104F1640000F0B1FF01F02A
:10234C0039F806211F2001F0B8FA01208DF80100A0
:10235C000DF101020020ADF80A00012101208DF8D9
:10236C0000000820ADF80800ADF806000020ADF81C
:10237C0004004FF47A70ADF8020040F2053001F021
:10238C00A9FC0DF10A02022140F2063001F0A2FC78
:10239C0000F0C3FA00F052FC04F19402072140F261
:1023AC00073001F097FC6A4601214FF4447001F0AC
:1023BC0091FC02AA022140F2113001F08BFC0DF1CC
:1023CC000602022140F2123001F084FC01AA022123
:1023DC0040F2133001F07EFC0DF1020202214FF4A9
:1023EC00457001F077FC04F19C021521002001F0EE
:1023FC0065F9A021062001F060FAA021072001F068
:10240C005CFAA021082001F058FAA021092001F063
:10241C0054FA0020019001AA01208DF803008DF8D8
:10242C000200042100208DF8010001208DF800002D
:10243C004FF4816001F096FA0DF1030201214FF483
:10244C00806001F08FFA0DF10202012140F202408E
:10245C0001F088FA0DF10102012140F2034001F074
:10246C0081FA6A46012140F2064001F07BFA4FF0F6
:10247C00FF3001F020F94FF0FF3001F0E5F802F0E9
:10248C00D3F84FF0FF3002F0EBF901208DF8020089
:10249C00142102208DF8010003208DF800000DA8F6
:1024AC0002F0A2FB00200190002105A800220023CD
:1024BC000EC0142102F098FB02A800210022002378
:1024CC000EC00DF102020121002002F02BFA0DF1D9
:1024DC0001020121012002F025FA6A4601210220A5
:1024EC0002F020FA0DAA1421032002F01BFA0DF1C0
:1024FC0006020221042002F015FA01AA022105208D
:10250C0002F010FA05AA0A21062002F00BFA08AA1A
:10251C001421072002F006FA02AA0A21082002F070
:10252C0001FA04F1C00002F0F5F904F1B40001F075
:10253C00A5FD04F1B80001F04BF8E08BC0B201F03E
:10254C0044F8E08BC0B201F09CF8102000902023DE
:10255C00402204F1C40104F1280002F09EFB12B0E9
:10256C0010BD00002DE9F04B88B0FFF7B6FEDFF888
:10257C004C97DFF83087DFF8385705AF31E0288CFF
:10258C00410705D54FF6FB710840288400F0CAF9C5
:10259C00288CC10625D54FF6EF710840288400F031
:1025AC00EAF8FFF755FEFFF775FED9F80000002892
:1025BC00FBD100F007FC68840120C9F82800042036
:1025CC00FEF762F900F0C0FB686A00F0BEFD688C93
:1025DC00FFF72BFE688405F122020221042002F091
:1025EC00A1F900F0CCF80A20ADF802004FF0FF3052
:1025FC00019000F0C8F8044602F012FB002CBED18A
:10260C000820ADF808000920ADF80A0002A800F077
:10261C00BBF8BDF80E20049E002873D1BDF80C0049
:10262C000124102804BFE98B8A4239D130884FF637
:10263C00FF7290421DD1B078000731D5286B78B36A
:10264C00697F491C697700F108020179408801F023
:10265C0020F8162818BF0428834621D0286BE98B54
:10266C0040880022C9B201F0CBFA584600F08FF82E
:10267C0016E03078B02813D1707816280BD17088FA
:10268C000822C9B201F0BCFA28B9012000F07FF889
:10269C002E63002404E0317906F1080001F0B0F952
:1026AC0086B37CB33046FFF7B1FD2BE005A94FF4A0
:1026BC00417001F053FC9DF814008DF800006A463F
:1026CC0078788DF801000821B8788DF80200002088
:1026DC008DF804008DF8030078798DF807003879AF
:1026EC008DF80600F8788DF80500002001F0A4FFA5
:1026FC0000F041F800F043F80520ADF80200019419
:10270C0000F041F8E86AFDF77FFF00287FF437AF4F
:10271C00E86A00F03BFE0400F4D02088012805D0C4
:10272C000228E7D1A07800F04BF8E3E7A078401E30
:10273C000728DFD8DFE800F00509040C06150409AA
:10274C00D8E7B3E7142000F022F800F066FAD1E7DE
:10275C0005F1400000F0E6FD05F1640000F0E2FD3B
:10276C00F0E7694640F2153001F0F8FB00F003F891
:10277C0000F031FABEE705F1640000F0B5BD0820A9
:10278C00ADF8000070476846D8F80010084710B53F
:10279C00DFF81C45226B5AB120B1117902F1080007
:1027AC0001F02EF9206BFFF731FD002020636077DC
:1027BC0010BD0146012012E1014602200FE100008C
:1027CC0038B5DFF8EC4450B101286DD002286FD039
:1027DC00072800F08880082800F0918031BD6946F8
:1027EC0002F028F99DF80010FF2091B1012920D0AA
:1027FC00022920D0032920D0482944D0492945D08A
:10280C0080291CD081291DD085291ED086292CD049
:10281C0002E0002001F0E4F9A07E032839D1224621
:10282C0014218A2001F00CFAE076224614210720AC
:10283C0037E00520EEE70720ECE70C20EAE700F094
:10284C00CAF9E9E700F0E9F9E6E700F0DDF90D2057
:10285C00207400F0D2F96D1C052DFADB00F0C9F9DB
:10286C000120A07505206076D6E700F0CDF90E208A
:10287C00207400F0C2F96D1C052DFADB00F0B9F9DB
:10288C000120E075EEE70320A076C8E70420A076CF
:10289C0001E0042840D100F040F8E07622460A21FD
:1028AC00082002F03FF827E0694602F0C3F831BD7A
:1028BC00694602F0BFF89DF8000003282CD8DFE829
:1028CC0000F0020B0D0F00202077DFF8F4130854F2
:1028DC00401C1428FBDB31BD012002E0022000E08B
:1028EC000320207731BD214602F0A4F822461421A2
:1028FC008A2001F0BAF9E0760020A07631BD21469D
:10290C0002F098F822460A21802001F0AEF9E07618
:10291C000020A07600F092F931BD22460A218020D9
:10292C0001F08EB938B5DFF88853287DFF240128D3
:10293C000AD1287EB8B100F03EF800F033F800F070
:10294C0036F8287E401E2876687D01280BD1287E1B
:10295C0048B100F030F8012000F024F800F027F81E
:10296C00287E401E2876A87D01280BD1687EC0B138
:10297C0000F021F80D2000F015F800F018F8687E32
:10298C00401E6876E87D01280BD1687E48B100F0C6
:10299C0012F80E2000F006F800F009F8687E401ED0
:1029AC00687631BD287405F10C0002F091B905F17F
:1029BC00400000F099BCFE2068732C730120A873B2
:1029CC0005210020E873704702E0000000BF00BF43
:1029DC00B7490A8C10430884886AFFF70FBC3EB5D0
:1029EC000446FFF7CCFE0D460420AE49ADF80200BC
:1029FC00019068460968884740B9029A32B1148040
:102A0C009570AB48816AC06A00F09CFC37BD000031
:102A1C002DE9F04702F060F9C5B2962DA8BF9625B6
:102A2C00A84C2946204602F055F92178207994F8D3
:102A3C000380A27867789E4B052D08BFFF290CD127
:102A4C00FE2F08BF012A08D1B8F1020F08BF0428D5
:102A5C0003D100261E7505261E76052D08BFFF29FD
:102A6C000CD1FE2F08BF012A08D1B8F1020F08BF04
:102A7C00052803D100265E7505261E76052D08BF98
:102A8C00FF290CD1FE2F08BF012A08D1B8F1020F83
:102A9C0008BF0D2803D100269E7505265E76052DF0
:102AAC0008BFFF290CD1FE2F08BF012A08D1B8F1AD
:102ABC00020F08BF0D2803D10022DA7505225A76C1
:102ACC0004F198057E4AEE8995F80CC094F81490A0
:102ADC0094F815A006F1010EB8F1060F02EB4C07A5
:102AEC000CF1010605D074D3B8F1080F54D012D3F1
:102AFC006FE0FF294DD16179B8707970E079787108
:102B0C00A079B8712E73F6B2022E62DBA5F80EE036
:102B1C0082F800E039E0FF293BD11B7FA07DE17DED
:102B2C00032B56D8DFE803F0020C1A230020115CAB
:102B3C00491C1154401C1428F9DB1421032044E0D7
:102B4C0087F802A087F80390B972F8722E73F6B268
:102B5C00042E3EDB14209074D0740EE087F802A093
:102B6C0087F803902E73F6B2092E32DB05E0B970AC
:102B7C00F8702E73F6B2092E2BDB4FEA0E41080EBD
:102B8C00A5F80EE0107082F801E01421032001F08A
:102B9C00C9FE002028731CE0FF291AD1607B287025
:102BAC0085F808A085F809902A46207B68700A21D0
:102BBC00E07BA870A07BE870607C2871207C687139
:102BCC00E07CA871A07CE8710620BDE8F04701F01C
:102BDC00A9BEBDE8F08738B500F014F8207400F0F9
:102BEC000CF86D1C052DFADB00F003F801202075A4
:102BFC0021E004F1400000F077BB601901210C309A
:102C0C0002F066B82A4CFF2020730025FE2060736A
:102C1C000120A0730020E073704738B5FFF7F2FF76
:102C2C0001202074FFF7E9FF6D1C052DFADBFFF77F
:102C3C00E0FF012060750520207631BD1C48224A3A
:102C4C00017A407A00EB012189B20A2091FBF0F362
:102C5C0000FB1311303191729BB20A2193FBF1F1FD
:102C6C0000FB11333033537289B20A2391FBF3F317
:102C7C0000FB1311303111729BB20A2193FBF1F15D
:102C8C0000FB11333033D37189B20A2391FBF3F378
:102C9C0000FB13103030907114214FF4427001F08E
:102CAC0019B80000DC0B00208C000010A0010010F3
:102CBC00EC0600201C900C40601D002000078A438D
:102CCC00582B0020442A00200C0B00200A0000A0E6
:102CDC00FF000000F8B504460D46FFF777F9461ED5
:102CEC00B641F60F074F38680028FCD02846A0479D
:102CFC0001203860002E1CBFBDE8F140FFF76AB917
:102D0C00F1BD00BF00800C4070B504460D46164660
:102D1C00FFF75CF9401E8041C00F2D490A68002A5C
:102D2C00FCD0012E02D0022E02D003E0257002E06E
:102D3C00258000E0256001220A6000281CBFBDE848
:102D4C007040FFF747B970BD80B501227921214849
:102D5C00FFF7DAFF204801220121FFF7D5FF0122FE
:102D6C00FB211E48FFF7D0FF1D49002008601D49BC
:102D7C00086001BD38B50C46154640F0010118B984
:102D8C00062C38BF41F040010422C9B21648FFF7A7
:102D9C00BBFF13480121016001688907FCD5002D98
:102DAC0010480FBF40F6011110490D6041F601614A
:102DBC000160E000BDE8384040F003010422C9B2D4
:102DCC000B48A1E70B480168C907FCD44068704761
:102DDC0000800C402AB00C4029B00C4028B00C40AC
:102DEC0030600C4010900C401AB00C40003708407A
:102DFC0018B00C4014900C40DFF800F0CDA001107E
:102E0C00DFF800F0C1C10110DFF800F03DC1011086
:102E1C00DFF800F029AF0110DFF800F009B701105E
:102E2C0090FAA0F0B0FA80F0704780B5DFF8EC03B0
:102E3C000068FFF7F5FF0121DFF8E4238140116002
:102E4C000121DFF8E0231160DFF8DC130A689042FF
:102E5C000BD201EB80014A683AB11368190004D017
:102E6C00C1B21046BDE80440184701BDF8B50D00CD
:102E7C00ECB244BF85F0204585F4C045A10001F1BA
:102E8C00804101F5012100EA05060A68DFF89C7310
:102E9C003E4085EA020382433243034000F4E026BD
:102EAC001B0EB6F5E02F03F0010302D1D30105D4BC
:102EBC0011E010F4E02F08BF002B0CD002F4E0233B
:102ECC00B3F5A02F04D0B3F5C02F04D1052300E037
:102EDC00062363F312420A60410205D5A90DDFF8FF
:102EEC00502301F00101115500020ED5FEF708FE2A
:102EFC0000F050F92C024CBF1C4600249A4322438C
:102F0C000A60BDE8F240FEF7FFBDF1BD002948BFE5
:102F1C000021800000F1804000F5012001F03F010C
:102F2C000268920941EA8211016070472DE9F04F65
:102F3C0097B08146FFF7E6F80025012804D1FFF78A
:102F4C00D7F8022808BF0125DFF8E802C168C1F3F1
:102F5C00815101294FF0010A04D10068000E0AFAD0
:102F6C0000F00543DFF8D002DFF8BC620078DFF830
:102F7C00CC020068C0F346003060FFF7C3F80128AC
:102F8C0002D13068401C30603168DFF8B47219B17E
:102F9C00FF22384601F0A2FE4FF00008002405E0A5
:102FAC00CC550AFA00F040EA0808641C59F82400D1
:102FBC00C1B2FF2908D03268914203D225FA00F23F
:102FCC00D207EDD5022058E00920FDF7E9FCC6F840
:102FDC0080900823242200210DA8FFF711FF8DF803
:102FEC004CA00DAA012106F1A000FFF715FF00244B
:102FFC00DFF850A20BE05046FFF738FF4FF0FF31DF
:10300C00E0B2FFF783FF0020CBF80400641C3068AB
:10301C00844212D225FA04F0C00706EB840B48BF99
:10302C000420F1D428FA04F0C00747BFE05D59F83A
:10303C002010E0B240F4C041DDE70823302200212B
:10304C0001A8FFF7E1FE0020009001ABDFF8F821AA
:10305C00102106F18400FFF7DBFEDFF8F0010168B8
:10306C0021F47C5141F4005101600120DFF8E011A2
:10307C000860DFF8E0110860002017B0BDE8F08FA1
:10308C002DE9F041DFF8A06104460D4606F1A008D9
:10309C0000F032F800273DB9002020606060A0608D
:1030AC0000271DB31EE07F1C15F82700FF28F3D066
:1030BC003168884204D206EB800040680028F2D0C8
:1030CC00002413E006EB800101224C6002FA00F0B0
:1030DC00616808436060204655F82720594900F084
:1030EC0071F87F1C15F82700FF28EBD14046FFF73D
:1030FC0085F82046BDE8F0814FF0FF314046FFF7E0
:10310C007BBE10B50C46F0B1416821FA04F2D2072F
:10311C0019D50122A240914341600020424901EBA4
:10312C00840250604648225C4648FF2A0EBF44F099
:10313C002041D1F8801051F82210FFF797FE4FF084
:10314C00FF31204661E0022010BD10B5044605E0B9
:10315C00FFF766FEC1B22046FFF7D3FF6068002878
:10316C00F6D110BD38B50C462F4915460A68944265
:10317C0004D201EB84014968814201D0022032BDA6
:10318C00FEF7BEFC00F006F89A4305FA04F31A4366
:10319C000A603EE030490A680123A340704710B52D
:1031AC00214B1C68A14204D203EB81035B68834270
:1031BC0001D0022010BD10001D4A18BF0120505430
:1031CC00002010BD38B5184C25680B461146CAB204
:1031DC00AA4204D204EB82025268824201D002203D
:1031EC0032BD1846FFF742FE002032BD0B4610B52B
:1031FC0011460D4A1468A34204D202EB83025268B2
:10320C00824201D0022010BD1846FFF77FFE00203D
:10321C0010BDFEF779FC002032BD0000E02002401A
:10322C00E020026080E200E088290020007F077F18
:10323C0000200240A83F0050D72B002080120840ED
:10324C00202B0020007FC767372E0000003009407C
:10325C000C40094008000940D0200240DFF800F083
:10326C0085C10110DFF800F079B50110DFF800F02E
:10327C00F5B80110DFF800F0B5C10110DFF800F06F
:10328C00A9C1011000B583B00821ADF80010019060
:10329C000521ADF80210684644490968884707BD06
:1032AC00F0B589B004460D4616461F460823242265
:1032BC0000216846FFF7D2FF0F983D490968069038
:1032CC006B464FF47A70B0FBF1F101FB07F00590FF
:1032DC0001FB06F20E98ADF8100029462046FFF7C8
:1032EC00C1FF204609B0F0BDFDF78AB938B50446D8
:1032FC000D46FDF71EFA10B12046FDF779F900F0E6
:10330C0013F800FB05F12046FDF776F92046BDE8E1
:10331C003240FDF775B980B5FDF70BFA00B101200D
:10332C00C0B202BDFDF764B9214909684FF47A7047
:10333C00B0FBF1F0704710B504460021FFF796FF83
:10334C00204610BD70B584B004460820ADF80000CE
:10335C000D460420ADF802000C20144909680190B8
:10336C0016466846884758B9029949B18E6020467E
:10337C00FFF780FF15B12846FEF740FF012003E060
:10338C003046FFF77FFF002004B070BD10B5044637
:10339C00FDF73AF938B92046FFF770FF8468FFF75C
:1033AC0071FF204610BD002010BD0000DC0B00207A
:1033BC00146F000070470000E0B50821ADF8001054
:1033CC000190022100F00FF808B100200EBD029808
:1033DC000EBD00B583B00821ADF80010019003219B
:1033EC0000F001F807BDADF802106846DFF878135D
:1033FC00096808471FB5ADF80610ADF8040008249D
:10340C00DFF864138DF808200393ADF80040ADF895
:10341C00024068460968884704B010BD30B585B0D5
:10342C00144608220291ADF800201922DFF8381357
:10343C0009680190ADF802201D466846884714B112
:10344C00BDF80C10218015B1BDF80E102980089A1A
:10345C000499116005B030BD00B583B00820ADF8FB
:10346C0000001A2000F014F810B9BDF804000EBDCD
:10347C00FF200EBDE0B5ADF80000ADF80610002041
:10348C0000F006F810B99DF808000EBDFF200EBD27
:10349C00DFF8D4120968ADF802006846084750B14D
:1034AC0010F1040F01D10420704710F1030F01D16A
:1034BC0002207047012070478123037042EAC1113A
:1034CC00002341F47C41C3708180704782230370D8
:1034DC0081800023C370827170473EB5044608207A
:1034EC00ADF800000D462020ADF802001020DFF8EA
:1034FC0078120968ADF804006846884720B902982C
:10350C0010B16FF004003EBD00950023002221464F
:10351C004FF0FF30FFF782FF3EBD10B582B014466E
:10352C00CA78012A03D18A88DFF8E8341A8000F0BF
:10353C0010F858B9009069462046FFF7CEFF28B91D
:10354C0000984478FFF745FF204616BDFFF7A7FF0C
:10355C0016BD0B46022210214CE738B51C46154609
:10356C00FFF7F7FFC0B9009069462846FFF7B5FF93
:10357C0090B900984578280002BF0098C079A04205
:10358C0005D1009881680498224601F0C5FB00988B
:10359C00FFF71FFF284632BDFFF781FF32BDF8B59C
:1035AC0000F057FA00F0C0F907000DD0324629465A
:1035BC00FFF78CFF00F049F93872FFF74DFF3B46DF
:1035CC0001B0BDE8F0403AE0F1BD10220121E6E780
:1035DC0038B500F0E2F9050004D0042200F032F80E
:1035EC00AC6026E031BD3C81BD72FE6034E72DE954
:1035FC00F04100F05BF907000FD0142200F022F824
:10360C003C72FD603E8287F81280FFF725FF394639
:10361C00BDE8F041DFF800247FE72FE038B500F07B
:10362C0033F8050001D0152200E031BD00F00AF896
:10363C002C81FFF711FF2B4601B0BDE83040022270
:10364C001021D7E6012141E70022042177E02DE982
:10365C00F04100F02BF9070010D002220421FFF7F3
:10366C0035FFBC60BD81BE73C7F81080FFF7F4FE58
:10367C003946BDE8F041DFF8A4234EE70420BDE84D
:10368C00F081102202218AE704460A2094E60221E6
:10369C001CE7F8B500F07BF907000AD01522FFF7FC
:1036AC00F6FFFFF7A0FF3946BDE8F840DFF87023BE
:1036BC0033E70420F2BD0022032140E000B583B0C3
:1036CC000FF24903019306230093032300F04EF8F5
:1036DC000EBD1078802802BF508840F27F6188426E
:1036EC0008D19088984202BF91790098814201D10B
:1036FC00012070470020704710B582B00624FFE708
:10370C000094FFF7E6FF16BD000000000323F3E76B
:10371C001078802802BF508840F27F6188420CD11B
:10372C009088032818BF042807D1907901001CBF8A
:10373C001028112801D10120704700207047F8B5DE
:10374C0000F013FA07000CD032462946FFF7BEFEF4
:10375C00BC60FFF781FE3946BDE8F840DFF8C422B3
:10376C00DBE60420F2BD0000DC0B00202DE9F0416B
:10377C0000F027F807000AD0069A4146FFF7A6FE8C
:10378C003C817D81FFF731FF079A00F015BA75E790
:10379C004246032190E670B582B000F05AF9FFF76B
:1037AC005BFE1B210091C3B232462946204600F035
:1037BC00FEF876BD10B582B01D24009400F0F7F829
:1037CC0016BD04460D46164698461020FFF7F4BD6C
:1037DC002DE9F04180460D4616461F461820FFF78E
:1037EC00EBFD040014D0002200F05DF800F01BFA91
:1037FC0020726572A672E760069820610798606176
:10380C00FFF72AFE2146BDE8F0410FF2BD2284E607
:10381C0034E70FF2B923112200211EE1F8B500F0B4
:10382C00C0F807000FD00A2200F03DF800F00DF8A8
:10383C0038727D813E73FFF70FFE3946BDE8F840C4
:10384C000FF28D2269E60420F2BD21465020FFF7CD
:10385C0011BE0FF28123062210E12DE9F0418046C2
:10386C000D4616461F461020FFF7A6FD040010D08B
:10387C00072200F018F800F0D6F920726572A672D3
:10388C00E760FFF7E9FD2146BDE8F0410FF2492260
:10389C0043E6F3E60FF2452308220021EEE00FF297
:1038AC0041231022C4E00421FFF706BE04460D4656
:1038BC00164698461420FFF77FBD70B500F014F83B
:1038CC0006000BD03022FFF7EEFF00F009F831466E
:1038DC00BDE870400FF20D22FFF71FBE042070BD33
:1038EC0034817581FFF7B8BD04460D460C20FFF7F7
:1038FC0063BD30B583B004460020ADF8040000F081
:10390C0013F805000DD03122FFF7CDFF2C81FFF706
:10391C00A3FD01A9009102230FF2CD122946FFF756
:10392C001CFEBDF804003EBD0A20FFF745BD1CB5CA
:10393C0000208DF8040000F012F804000CD01222C4
:10394C00FFF780FEFFF788FD01A9009101230FF21C
:10395C009D122146FFF701FE9DF8040016BD0820BC
:10396C00FFF72ABDF8B500F012F807000DD036228B
:10397C00FFF799FF3C817D81FFF737FE3946BDE8A3
:10398C00F8400FF27912FFF7C8BD0420F2BD0446CF
:10399C000D4616461020FFF70FBD04460C20FFF70E
:1039AC000BBD04460D4616460E20FFF705BD2DE94E
:1039BC00F041FFF77BFF070011D0069AFFF7E9FEF5
:1039CC003C813E74FD6000F02EF97874FFF744FDE5
:1039DC003946BDE8F0410FF25912FFF79EBDFFF7D3
:1039EC004DBE38B51446104A15682A0006D000930F
:1039FC0002460B4621460120A84732BD002032BDAD
:103A0C000A4A13681A0003D00A46014601201847D7
:103A1C0070470000580C00205D3B00006D3B00001F
:103A2C00633B00001D370000C02B0020C42B00207E
:103A3C002DE9F04100F00DF898460C20FFF7BCFC86
:103A4C00070004D000F016F83C81BD72B1E0FFF71E
:103A5C0015BE04460D46164670472DE9F041FFF79A
:103A6C00B0FE070004D000F005F8BC60FD60A0E0DB
:103A7C00FFF704BE32460421FFF71EBD2DE9F041CD
:103A8C00FFF79FFE070006D0FFF7F4FFFFF7DDFE00
:103A9C003872FD608DE0FFF7F1BD1078802802BF11
:103AAC00508840F27F6188420CD190884FF680712B
:103ABC000140B1F57E4F04BF00F07F00984201D168
:103ACC0001207047002070470023E6E71123E4E74C
:103ADC000A23E2E70623E0E70723DEE70823DCE717
:103AEC001023DAE73023D8E73123D6E780B5122349
:103AFC0000930123FFF7EDFD02BD00003623CCE758
:103B0C001078802802BF508840F27F6188420DD126
:103B1C0090884FF6807101404FF68052914204BF5D
:103B2C0000F07F00984201D10120704700207047BF
:103B3C0070B5FFF78EFF1D23FFF7E2FF30B9324659
:103B4C0029462046BDE870401B23D9E7012070BDF3
:103B5C0080B51423CCE780B5152300930223C9E765
:103B6C0080B5022300930423C4E704460D46164691
:103B7C000C20FFF721BC2DE9F041FFF76AFF9846B6
:103B8C000E20FFF719FC070009D000F00AF83D8160
:103B9C007E81A7F80C80FFF75FFC069A0CE0FFF71C
:103BAC006DBD812038700120F870BC8070473D815C
:103BBC00FE60FFF751FC42463946BDE8F041FFF785
:103BCC00ACBC1078802802BF508840F27F618842DC
:103BDC0004BF9088984201D10120704700207047A3
:103BEC0080B50FF24D0100F006F84FF60140FFE7EB
:103BFC00FFF7C1FF02BD0091002301460022704770
:103C0C0038B50446154600F00FF80FF22D0100915F
:103C1C00C2B22B4621464FF61840FFF7ACFF32BD1F
:103C2C003C817D81BE8141465020FFF723BC0000C2
:103C3C004FF60143C5E700004FF61843C1E70000FB
:103C4C00F8B5FFF7A4FE07000DD0012200F022F812
:103C5C003C727D72FFF7C9FC3946BDE8F8400FF2A3
:103C6C006D02FFF75ABC0420F2BDF8B5FFF78FFECA
:103C7C0007000DD0022200F00DF83C727D72FFF7A8
:103C8C00B4FC3946BDE8F8400FF24502FFF745BCDD
:103C9C000420F2BD0521FFF70FBC1078802802BF6D
:103CAC00508840F27F6188420DD190884FF6807128
:103CBC0001404FF68062914204BF00F07F009842B1
:103CCC0001D1012070470020704700000123E4E778
:103CDC000223E2E72DE9F04EDFF83C79924600260C
:103CEC0040F2013B0C467A783B7997F803C0B7F861
:103CFC001090B0EB0B0540F67B4132D06D1E38D0E6
:103D0C006D1E3DD0AD1E41D06D1E00F07B806D1E32
:103D1C0000F07E806D1E00F088806D1E00F0968095
:103D2C006D1E00F09B806D1E00F0A0806D1E00F0DB
:103D3C00A7806D1E00F0AC80ED1E00F0B1806D1EF2
:103D4C0000F0B6806D1E00F0BB806D1E00F0C080D0
:103D5C006D1E00F0C5806D1F00F0CD80AD1E2DD006
:103D6C00E1E0102C40F0DD801022514607F1A40058
:103D7C0083E0102C6BD11022514607F1B4007CE08B
:103D8C00042C64D1DAF80000F862D7E0012C5ED183
:103D9C00012B35D09AF80000F870BCF1000F06D05A
:103DAC000028F2D1022A19D0052AEED116E00028FB
:103DBC00EBD0012A20D0042A1CD11DE0012C46D1C5
:103DCC00BCF1010F1CD09AF8000038715BB10028CF
:103DDC0008D1032A1CBF072A052A03D15FFA89F0F0
:103DEC00FFF758FDAAE00028FCD0012A1CBF042ACA
:103DFC00062A01D0052A02D1012000F005FC9DE025
:103E0C0012269BE0022C22D1BAF80000B88295E071
:103E1C00202C0BDA07F1CC0600F093F800F099F89F
:103E2C007C713346224601210BE0202C79DA07F114
:103E3C00EC0600F086F800F08CF8BC713346224694
:103E4C0000215FFA89F0FFF708FD74E0012C68D1BE
:103E5C009AF80000052864DAF8716FE0012C60D143
:103E6C009AF8000004285CDA387267E0062C58D106
:103E7C004FF4867006225146384400F04DFF5DE049
:103E8C00012C4ED19AF8000008284ADA787255E0D5
:103E9C00012C46D19AF80000042842DAB8724DE0A1
:103EAC00012C3ED19AF8000002283ADAF87245E06B
:103EBC0000F04BF835D1821F8A4232D238833DE074
:103ECC0000F043F82DD1821F8A422AD2788335E044
:103EDC0000F03BF825D1B0F5FA7F22DAB8832DE05B
:103EEC0000F033F81DD1A0F10A0140F6774291425F
:103EFC0017D2F88322E0012C04BF9AF800000128A5
:103F0C000FD107F18000FFF706FA40B900F021FB52
:103F1C00060013D107F15C00FFF704FA0EE0162639
:103F2C000CE018260AE0272807DA022C05D1BAF88B
:103F3C000010FFF7C2FC064600E002263046BDE842
:103F4C00F08E1F21304600F023BFBAF80000022C7F
:103F5C00704722465146304600F0DEBE38B500248C
:103F6C004FF440730D46C21ADFF8AC1636D0521E11
:103F7C0036D0521E37D0521E38D0521E39D0521E57
:103F8C003AD0521E3CD0521E3CD0521E3DD0521E36
:103F9C003ED0521E3ED0521E3ED0521E40D0521E1B
:103FAC0040D0521E40D0921E40D0521E40D0521EC5
:103FBC0040D0521E40D0521E40D0521E40D0521EF5
:103FCC0046D0521E46D0521E46D0921E48D0521E8B
:103FDC0014D0521E42D0521E44D046E0887842E0A3
:103FEC001022A43130E01022B4312DE0C86A2860D0
:103FFC0042E00622C43127E0C87834E0087932E088
:10400C00888A36E04A79CC311EE08A79EC311BE0A3
:10401C00C87928E0087A26E006224FF4867012E070
:10402C00487A20E0887A1EE0C88A22E0C87A20E02C
:10403C00088B1EE0488B1CE0888B1AE0C88B18E0BC
:10404C0006224FF48A700144284600F065FE13E006
:10405C00088C0EE0488C0CE0888C0AE0087B02E0AF
:10406C00487800E0487B287006E0272803DAFFF741
:10407C0040FC288000E00224204632BD1CB5DFF84D
:10408C009845617889B900B1206304F12C00019046
:10409C0004F1B400009004F1A403208AA17800225A
:1040AC00C0B2FFF795FB002016BD112016BDDFF83E
:1040BC0068054178062918BF072905D1C18A008AED
:1040CC001322C0B2FFF7AABB1220704700B58FB005
:1040DC0008233C2200216846FEF78CF8DFF83C05EB
:1040EC0000F15001079100234FF4DC7108916A46EE
:1040FC00032106910FF2D101FEF784F80FB000BD39
:10410C0070B584B000F018F90120DFF81415DFF851
:10411C00084509680FF20D55ADF8020000266846F7
:10412C008847BDF8040020820298A06200206070CD
:10413C004FF6FF70E082FFF7FAFB2070002301209E
:10414C000190002200200090294604F13800FFF76E
:10415C00A7F8022000F02FF804F15C00FFF7A0F89C
:10416C00042000F028F804F18000FFF799F80420EF
:10417C00A07004F1A40200200021002300252BC212
:10418C0004F1B405103A4BC5E062E0712072A172E3
:10419C000720607210210220FFF752FD103D2A46C5
:1041AC0010210320FFF74CFD04F12C020421042004
:1041BC00FFF746FD7FBD01900023002000900022F8
:1041CC002946704700000000FEB5FFF799FFDFF8A5
:1041DC004854DFF84C4405F1800700F0ADF80A2094
:1041EC00ADF802004FF0FF30019068462168884717
:1041FC0000284BD100F0A0F80920ADF80200684669
:10420C0021688847BDF80610029E00283ED1BDF8F3
:10421C000400102804BF288A81422DD130884FF623
:10422C00FF71884209D17088400425D505F12C0214
:10423C0004210420FFF719FD1EE03078A22805D0D8
:10424C00D02804BF304600F07BF815E070791328B5
:10425C0012D13089012804BFA87B022805D1384629
:10426C00FFF760F8FFF723FF06E00520FFF741FB9F
:10427C0001463846FFF73AF846B100F05DF80320E6
:10428C00ADF802000196684621688847688AC10724
:10429C0031D54FF6FE7108406882E97828790143E0
:1042AC0029D018B103208DF800000DE0E8798DF8C5
:1042BC0000000622287A8DF801004FF48670291828
:1042CC000DF1020000F028FD687A8DF808006946AF
:1042DC00A87A8DF80900288AC0B2FFF7BAFA00282C
:1042EC001FBF08206870286B002804D001680800E4
:1042FC001CBF08208847688A810706D54FF6FD71D8
:10430C0008406882002000F024F9688A41070AD529
:10431C004FF6FB7108406882A87B012804D0022864
:10432C0008BFFFF7C4FE58E70090EB8BAA8B698B94
:10433C00288B00F042F950E70820ADF800007047D8
:10434C00F8B5B54C61784FF48A730546E618AA782F
:10435C002079130004F1800711D0022A3BD0032AE4
:10436C0018BF042A59D0052A7CD0062A00F0A88050
:10437C00072A00F0C9800F2A00F0E580F1BD6878AB
:10438C0001001BD104F1A40210210220FFF76DFCE7
:10439C0004F1B40210210320FFF767FC0622E91C8C
:1043AC0004F1C40000F0B8FC0120607004F1CC03EF
:1043BC00208A62790121C0B2FFF74FFA08B10820B8
:1043CC006070206B30B10168080003D06078BDE8E4
:1043DC00F4400847F1BD6A78DAB9EA784AB1208A24
:1043EC00A27904F1EC030021C0B2FFF736FA687031
:1043FC000FE0022918BF07290BD0062901D101288B
:10440C0007D104F13800FEF786FF10B9012000F047
:10441C00FBF868780028DDD0D1E76B780BBBE3782C
:10442C00032A08D1062908BF0720C9D0002B0CBFCE
:10443C0003200220C4E7A18A0A0006D018430AD040
:10444C0004F13800FEF752FF05E0012B07BF0020F6
:10445C00E070002020716078072814BF042006202B
:10446C00AEE7ACE76878010024D10622291D30465E
:10447C0000F052FC6889E08206206070E889208494
:10448C00288A6084688AA084E8782073E07A0128FE
:10449C0009D11F20FFF72DFA4FF47A71414304F133
:1044AC005C00FEF723FF6A89E8780423291DFFF7D7
:1044BC009EF886E7312882D10020E07004207FE747
:1044CC00A888FFF7ABF80621FFF73CFD00202084FD
:1044DC006084A084A879607304F15C00FEF722FF6D
:1044EC003846FEF71FFF4FF6FF70E082207908B1C7
:1044FC00032065E7A87908280CBF0520042060700C
:10450C00012000F081F85CE73846FEF70BFF687875
:10451C0000280AD1E8882084288960846889A084CE
:10452C0004F15C00FEF7F7FE00287FF453AF636BD9
:10453C00002B3FF44FAF1B68A28C618C208C01B018
:10454C00BDE8F0401847A888BDE8F4400521FFF706
:10455C00A6B9FEB5304D2A8B0446288C904224BF58
:10456C00698B814207D3688CA98B884202BFA88CC7
:10457C00E98B88421ED00520FFF7BBF90646E88A76
:10458C00ADF80000288BADF80200688BADF8040084
:10459C00A88BADF80600E88BADF808006846FFF76D
:1045AC0038F9070007D1AC73314605F18000FEF7EE
:1045BC009DFE00E018273846FEBD70B5164C657898
:1045CC00062D01D0142070BD40F67A45861FAE42F0
:1045DC003CBF8E1FAE4215D2B2F5FA7F12DAA3F1B0
:1045EC000A0540F67646B5420CD220836183A2833D
:1045FC00E3830498FFF7ADFF04F15C00FEF792FE35
:10460C00002070BD182070BD03494A8A10434882AF
:10461C00886AFDF7F3BD0000D00500206C22002055
:10462C00DC0B0020F0E700000FF204237D48102281
:10463C001321FFF70CB800002DE9F04300240828E3
:10464C0085B00E469146784F00F28A80DFE800F084
:10465C00050C1824303C48537D00082E76D1324688
:10466C00494607F1080076E0152E77DA152107F197
:10467C00100000F0B9FA3246494607F110006AE022
:10468C00152E6BDA152107F1280000F0ADFA324631
:10469C00494607F128005EE0152E5FDA152107F177
:1046AC00400000F0A1FA3246494607F1400052E0C2
:1046BC00152E53DA152107F1580000F095FA324601
:1046CC00494607F1580046E0152E47DA152107F147
:1046DC00700000F089FA3246494607F170003AE062
:1046EC00152E3BDA88371521384600F07DFA324614
:1046FC00494638462FE00820ADF808000420ADF8F4
:10470C000A00039602A8DFF82481D8F80010884725
:10471C00C8B9049DBDB1786807F1A00188420AD0E0
:10472C000821ADF8001001900521ADF80210684683
:10473C00D8F80010884732464946284600F0ECFA73
:10474C007D603E700DE013240BE0072E06D132463F
:10475C00494607F1B00000F0DFFA02E0182400E04F
:10476C000224204605B0BDE8F08300002DE9FE4987
:10477C0090464A680A9C107852780B9D00EB0220F8
:10478C001F46002680B242F62322274B801A03EBE9
:10479C00040C07D0401E052810D9801F1ED02638C7
:1047AC0029D03AE0092C28D2C4F10800854228BF50
:1047BC00C4F108053D800CF1080129E0D1F80CB0DA
:1047CC00584600F0E9FA80B2A04216DB011B8D427C
:1047DC00A8BF051B3D800BEB040119E018780146BE
:1047EC00A1420AD3001B8542A8BF0D1B3D8058680F
:1047FC003A8801190DE0082C01D307260FE0C4F10B
:10480C000700854228BFC4F107053D800CF1B001BB
:10481C003A88404600F080FA01E03E800A26304695
:10482C00BDE8FE89A0040020B4070020DC0B0020AA
:10483C00794700000000000000000000E0B50821EE
:10484C00ADF8001001900421ADF802106846DFF8B5
:10485C0080130968884708B100200EBD02980EBD70
:10486C0070B5DFF87063DFF87053044600F04FF852
:10487C00A86000F04CF8E86000F049F8286100F0FE
:10488C0046F8686100F043F8A86100F040F8E86170
:10489C0000F03DF8A968286200291CBFEA68002ACC
:1048AC000CD02A69002A1CBF6A69002A06D0AA69A2
:1048BC00002A1CBFEA69002A00D008B9132070BD79
:1048CC004FF6FF7600F020F8E96800F01DF8296932
:1048DC0000F01AF8696900F017F8A96900F014F8EB
:1048EC00E96900F011F8296A00F00EF8E00709D523
:1048FC0005F16800BDE870400FF2E023102223217F
:10490C00FEF7A5BE002070BD304600F061BA3078CD
:10491C00800093E718B1B04948600020704711201F
:10492C007047000070B50346084600241146082B5A
:10493C0084B002460FF25916A74D61D8DFE803F098
:10494C00050A0F14212B35424F00012856D1087847
:10495C00287056E0012851D10878687051E0012880
:10496C004CD10878A8704CE0142847D105F12800E8
:10497C0000F0D2F900F055F8E868002205F12801A2
:10498C0039E002283AD105F1240000F03DF82869FD
:10499C0005F124012FE0022830D105F1260000F0AA
:1049AC0033F8686905F1260125E00A2826D105F1BE
:1049BC003C0000F0B1F900F034F8A869002205F1D0
:1049CC003C0118E0142819D105F1480000F0A4F9B5
:1049DC0000F027F8E869002205F148010BE00A28ED
:1049EC000CD105F15C0000F097F900F01AF8286A78
:1049FC00002205F15C0100F005FA02E0182400E049
:104A0C000224204604B070BD0A78027005F16803D8
:104A1C004A784270FF2001900296232000900022D9
:104A2C007047FF20019002962320009005F1680347
:104A3C007047000010B5024600240846082A664953
:104A4C0023D8DFE802F00507090C0F11171A1D0017
:104A5C00097802E0497800E08978017016E01422A8
:104A6C0028310FE0243100E026310A7802704A78B0
:104A7C0042700BE00A223C3104E01422483101E080
:104A8C000A225C3100F048F900E00224204610BDF7
:104A9C0038B510460A7A0024D20601D5082032BD5A
:104AAC00049A0AB10B2032BD0A78022A30D14A6826
:104ABC001578527805EB022292B24FF6F175521B23
:104ACC00012A0CD9D21E18D0521E0ED0521E0CD058
:104ADC00521E14D0521E10D0521E10D015E00122BE
:104AEC001A80C9680978017014E002221A80C9681A
:104AFC000A7802704A7842700CE0142200E00A2214
:104B0C001A80C96800F008F904E01C800A2401E04E
:104B1C001C800124204632BDF0B50D4683B01146F1
:104B2C002A7A0024920601D50820FEBD2A78022A92
:104B3C0018BF012429D16F6897F800C07F78089AB4
:104B4C00254E0CEB0727BFB242F6021CB7EB0C0745
:104B5C0033D04DF2EF603F1A06D0BF1E04D07F1F3A
:104B6C0015D07F1E1CD031E0FAB9012B1BD108786F
:104B7C00E9680870E868B04214BF02200020716830
:104B8C0019B109680A0018BF88472046FEBD62B9F2
:104B9C00142B08D1E868142200F0BEF80720EEE7C9
:104BAC001AB90A2B03D00D24EFE70B24EDE7E868C4
:104BBC000A2200F0B1F80820E1E7009201240A462D
:104BCC000194294600F081F90446DEE70A24DCE76B
:104BDC00DC0B0020D0050020080200209D4A0000BC
:104BEC00254B000000000000002200F07BB8000004
:104BFC003348018901800FE080B580B200F0FAF9EA
:104C0C002F484189818000690068BDE80240FDF7AA
:104C1C00F5BA2B488189418000690068FDF7EEBA2E
:104C2C0038B5FCF76DFF0546FBF7DAFC244C2288FF
:104C3C006388E1881A43A3881A431143E180002159
:104C4C0021806180A180FBF7CFFC2846FCF75CFF3C
:104C5C00A089E18801421CBF21EA0000E080E088C5
:104C6C006189084211D0606918B10068010018BF51
:104C7C00804700F0E6F920B9E08861898843E0803C
:104C8C0003E020690068FDF7B9FA2089E188014248
:104C9C001CBF21EA0000E08031BDF8B504460D468A
:104CAC0016461F46074A0849084800F0FBF9044914
:104CBC0006980C614D610E814F818881F1BD000019
:104CCC00402B00201F4C0000054C0000FD4B000049
:104CDC0000F036BA00F0C5B900F0B3B962F30F2298
:104CEC0062F31F4200B500BF13009646944610397C
:104CFC0028BFA0E80C50FAD85FEA417C28BF0CC052
:104D0C0048BF40F8042BC90728BF20F8022B48BF26
:104D1C0000F8012B00BD000062B38B0708D0521EB7
:104D2C0011F8013B00F8013B00F024808B07F6D111
:104D3C00830740F0208000BF103A07D330B4B1E8AD
:104D4C003810103AA0E83810F9D230BC530724BF01
:104D5C00B1E80810A0E8081044BF51F8043B40F833
:104D6C00043BD20724BF31F8022B20F8022B44BF9E
:104D7C000B7803707047083A07D3B1E80810083A6B
:104D8C0040F8043B40F804CBF7D25307E4E70000AB
:104D9C00002200F021BA000000F10103810704D0C9
:104DAC0010F8011B89B18107FAD10268B2F1013107
:104DBC00914311F0803F04BF50F8042FF6E710F830
:104DCC00011B11B110F8011BFBE7C01A7047000062
:104DDC0038B54FF6FF74A0420DD10020654A137808
:104DEC0098420EDA21F8204001EB80050023401C8C
:104DFC00AB70C0B2F3E700F0A9F810B10480002149
:104E0C00817031BD2DE9FE4F80460026B8F1000FB0
:104E1C0082B006D0080004D0180002D0109F3800D1
:104E2C0001D1022035E00F9C00252CE0EDB2A94603
:104E3C0038F829004FF6FF7188421EBF08EB890A2B
:104E4C009AF8020000281DD0029ABDF83810049878
:104E5C0000F02AF85FEA000B14D09AF80200C007A1
:104E6C0005D500F019F8012100F086F806439AF8F0
:104E7C000200800706D500F00FF8022100F07CF844
:104E8C000643F6B26D1C3B490978E8B28842CDD393
:104E9C00F0B205B0BDE8F08F019700949DF80C209E
:104EAC0038F829005B46704730B5002400E0641CDC
:104EBC00A3B28B4207D2A4B200EB0413DD68954277
:104ECC00F5D1184630BD002030BDF8B50446069823
:104EDC000D460026F0B9022B1AD11078517800EB50
:104EEC0001270798C043B9B201420FD1E8680168A5
:104EFC00204600F012F8B9B288420CD0E86801687C
:104F0C00BAB2204600F00FF8064604E0802602E014
:104F1C000D2600E00B263046F2BD80B500F016F8E9
:104F2C0000B1807802BD70B504460D46164600F0FF
:104F3C000DF840B929464FF6FF7000F007F808B994
:104F4C00112070BD04808670002070BD10B5002249
:104F5C0000E0521C074C2478D3B2A34207D2D2B241
:104F6C0031F822308342F4D101EB820010BD0020D5
:104F7C0010BD0000D00500202DE9F04186B00D4693
:104F8C0090461F46044603AB4FF6FF721B21FEF7FB
:104F9C0028FD059040B3FF2102910246BDF80C108C
:104FAC00DDF834C001910DF112030021009120466F
:104FBC003946E047064688B97889ADF81000E8070D
:104FCC0005D5424604A92046FEF7E5FB05E00C9BFF
:104FDC00424604A92046FEF7EDFB06462EB11B21E6
:104FEC0004A8FEF70DFD00E01526304606B0BDE81E
:104FFC00F0810000F8B5294C294F06466088002541
:10500C008119B1F5877F08DDC0F58775A9B238180D
:10501C0000F07FF80020761B6080B1B260883844C5
:10502C0000F077F86088301880B24FF4877190FBED
:10503C00F1F14FF4877202FB11006080A81980B265
:10504C00F2BD164841880088081A00F587704FF4A5
:10505C00877190FBF1F14FF4877202FB110080B263
:10506C007047F0B50D4B0E4D1C8800220EE0A4B21B
:10507C004FF487772E5D00F8016B641CA4B24FF4DB
:10508C00877694FBF6F607FB1644521C96B28E42BA
:10509C00EDD31C800846F0BD00000000C82B00209A
:1050AC00E026002070B50446484800680D4680474D
:1050BC00064647480FF21D02C4604FF49471056117
:1050CC000144183000F0B8F83046BDE87040414952
:1050DC000968084738B50C463D4D0021A980688009
:1050EC00010003D029690A0018BF8847200008D0A6
:1050FC0000202870E968080003D0E88808B9204629
:10510C008847E988080003D06869BDE8344017E097
:10511C0031BDF8B504460D4600F047F8A84202D25E
:10512C0000F043F805462A4EB788F01900F1180133
:10513C002A462046FFF7F0FDE819B0802846F2BD5C
:10514C002DE9F04104462148214E0068214F0D46BF
:10515C0080478046307820B1396840468847002027
:10516C0021E0B5F5877F07DD4FF48770A5F58771D2
:10517C0020444FF4877500E00021F18070612A46CD
:10518C004FF4947021463018FFF7C6FD01203070A3
:10519C00B068401CB060284600F0D4F80546396869
:1051AC00404688472846BDE8F081094841888088F8
:1051BC00081A00F587704FF4877190FBF1F14FF4EA
:1051CC00877202FB110080B270470000D40B0020E4
:1051DC0034200020D80B0020401810F0030308D016
:1051EC00C91A1FD3DB0748BF00F8012D28BF20F8D0
:1051FC00022D130030B414461546103928BF20E98F
:10520C003C00FAD8490728BF20E90C0048BF40F8F9
:10521C00042D890028BF20F8022D48BF00F8012D6D
:10522C0030BC7047C91818BF00F8012DCB0728BF38
:10523C0000F8012D7047000010B5504CE0628AB0A8
:10524C002163A262684600F0ABF84FF4612006902F
:10525C00694600208DF815008DF8160003208DF896
:10526C001C0000208DF81D0001208DF800008DF829
:10527C00010000208DF817000FF23D0003900FF293
:10528C001D000490002000F082F8606200222021B2
:10529C0000F07AF800F044F80AB010BD10B53848A8
:1052AC000068804704463548826A110002D0418C60
:1052BC000020904740E00000F8B500F05AF8144682
:1052CC0080470546CCB1318C002089B2B1F5877F7F
:1052DC0009DAF76A335C7B5400223254401C491CB7
:1052EC00C0B2A042F1D38442318406D0B26A10001D
:1052FC0009D0718C4FF487709047B26A100002D0BD
:10530C000021A0B29047002030842022706A3146E0
:10531C0000F04BF82846BDE8F4401A4909680847E4
:10532C0010B51748006880470446144900200884CB
:10533C002022486A00F039F8204612490968BDE875
:10534C001040084770B5044600F013F88047054636
:10535C00316B706A7484224600F02AF8094910F106
:10536C00010F04BF00207084096828468847708CA0
:10537C0070BD0348014E006870470000EC2A002005
:10538C00D40B0020D80B002003685B681847034A35
:10539C000C2303FB00200268D2681047686C0000E5
:1053AC000FF214012422FFF7C7BC03681B691847CE
:1053BC000368DB691847000000000000FFFFFFFFD7
:1053CC00FFFFFFFF000000000000000001010101D1
:1053DC0000C201000300000000000000DFF800F034
:1053EC00ADB50110DFF800F019AE0110DFF800F0D8
:1053FC00E5C10110DFF800F085C20110DFF800F004
:10540C0081C20110DFF800F055C10110DFF800F087
:10541C0043C20110DFF800F079AB0110DFF800F0A7
:10542C00D9B60110DFF800F0EDB3011020B108235C
:10543C002C220021FBF76ABF704720B108233C22C5
:10544C000021FCF7D7BE704780B5FBF7C9F8ADF863
:10545C000000FCF755FBADF80200009802BD01B549
:10546C00BDF80200FCF750FBBDF80000BDE802409F
:10547C00FBF7BAB838B5DFF87048DFF87058002081
:10548C00A4F86C0AE820208040F68410A4F8E80008
:10549C0004F1E8006860002000F003F8A8606C607C
:1054AC0031BDF8B500240025061D16F003001CBF05
:1054BC00311D0E1AFFF7C8FFDFF83028B6B21060A6
:1054CC00112EB4BF576897683A88130403D582F439
:1054DC00004200251AE02B0014D0238839880B4495
:1054EC0023809BB2B34211D327461A46B7B1921B05
:1054FC0092B2042AA7BFBA5346F40041398841F44A
:10550C00004109E0B242F1DA01253C4617443A88E1
:10551C00002ADAD1002701E027F8041BFFF79FFFD0
:10552C003846F2BD10B50446FFF78EFFDFF8BC1706
:10553C00086034F8042CC2F30E0224F8042C221F49
:10554C004B689A4238BF4A60BDE8104087E738B5CF
:10555C000446FFF779FF00210C23DFF894274B4317
:10556C00D518AA6C4AB1944204D1FFF778FF05F123
:10557C00480032BD491C0329EED3FFF770FF002011
:10558C0032BD70B50546FFF75FFF044600200C22C4
:10559C00DFF85C1742438E18B16C49B900203065B6
:1055AC00B5640022FFF71AFFF06418B900F06AFC2A
:1055BC008D4205D12046FFF752FF06F1480070BD21
:1055CC00401C0328E3D32046FFF749FF002070BDA1
:1055DC0038B50446FFF738FF0025DFF814170C2206
:1055EC006A438A5A130008D0944203D1FFF737FF5D
:1055FC00A8B232BD6D1C062DF1D3FFF730FFFF2092
:10560C0032BD10B504462088FFF7E2FFFF2800D119
:10561C0069E10C22DFF8D816504308448168080071
:10562C0002D16FF0010010BD2046BDE810400847C4
:10563C0002460FF2A070104710B500200C21DFF8C5
:10564C00B026002401FB00F31344401C03289C6487
:10565C001C65F7D30020002301FB00F4401C1353FE
:10566C000628F9D3082010800FF251709060BDE825
:10567C001040FFE670B590B0FAF7B2FF04466846EA
:10568C00FFF7DBFE0520069000224FF448700890CF
:10569C0069464FF201000490DFF858060590DFF8D8
:1056AC005806FFF79FFE050006D0FFF7CDFE064615
:1056BC002846FFF766FF08B900F0E4FB3046FFF719
:1056CC00CEFE2046FAF790FF10B070BDF8B500F092
:1056DC00E4F8FFF756FF0546FFF7B6FEA288002157
:1056EC000C26DFF80C364E4333441E88370007D1A6
:1056FC001A805D60A2689A60A18169682161C3E229
:10570C00B24204D1FFF7ABFE6FF00200F2BD491CB0
:10571C000629E5D300F0B6FB00BF38B500F0BDF8A4
:10572C00FFF72FFF050016D0FFF78EFE00210C238C
:10573C00DFF8BC254B431A4413884BB94FF6F8736A
:10574C001380556000239360A1806968A16014E701
:10575C00491C0629EBD300F095FB00BF10B504469D
:10576C0060680C3080B2FFF79CFE00B91AE06168EB
:10577C00018100210160FF2181720C30A0600020AA
:10578C0010BD80B540680C3811E080B289E610B5C8
:10579C000446606880B2FFF784FEA06000B901E0A7
:1057AC00002010BD6FF0030010BD80B54068FFF7FE
:1057BC00B9FE002002BD38B504460D46FFF744FE85
:1057CC00002145F80C1C216811B9256006E0114632
:1057DC0051F80C2C002AFAD141F80C5CBDE832408F
:1057EC003DE62DE9F04104466FF00206E068A0F1B9
:1057FC000C05E0880628BCBFA08806280BDAFFF74A
:10580C0023FEE188DFF8E8840C277943414449689A
:10581C0019B9FFF724FE304617E0FFF720FEA088E9
:10582C002871E0886871207AA871E088E168784373
:10583C00404440680830FFF7BEFFE088784340449E
:10584C0040684068FCF7DAFC0020BDE8F08170B5D8
:10585C0000F023F8FFF77BFE060002D16FF0040086
:10586C0070BDFFF7F1FDB168002541B10D46A5F102
:10587C000C010A68B26000220A60FF228A72FFF7EC
:10588C00EEFDA560A5F10C010DB9022070BD0879E3
:10589C00A0804879E080002070BD0446FFF7A6BDCB
:1058AC0006280ADA0C23DFF848245843105A020061
:1058BC001CBF4FF6F872904202D14FF0FF30704788
:1058CC00088000207047811D8088E9E710B50446E8
:1058DC00E088FFF77DFEFF2800D104E0E080204641
:1058EC00BDE810407DE74FF0FF3010BD3EB50446DB
:1058FC00FFF7ADFF050017D1A0886946FFF7D0FF71
:10590C0078B1A06802900821ADF8041001A8032119
:10591C00ADF80610DFF8E413896888476FF00500CE
:10592C003EBDBDF80000A08028463EBD10B5DFF896
:10593C00D02312680C464FF47A71A1FB00010023AE
:10594C00FCF74CFB002399424FF0004201D89042E7
:10595C0002D36FF0020010BD2060002010BD38B5DE
:10596C00FFF79BFFFFF7F3FD0546FAF779FE0028DA
:10597C0018BF012800D015B96FF0040032BD606863
:10598C0040B9009000996868FDF736FA401E8041D6
:10599C00C00F32BD10F1010F08BF4FF0FF30F0D037
:1059AC0000F04EF90028EDD032BD80B54068FCF710
:1059BC0025FC002002BD00F065FA00BF80B54068F0
:1059CC00FFF718FD002002BD80B54068FFF716FDFB
:1059DC00002002BD80B5FFF715FDFFF717FD002075
:1059EC0002BD80B5FAF7FCFDFCF78AF8002002BD79
:1059FC0010B58CB004466846FFF718FDE02000F0A7
:105A0C0013F808B900F03EFA0BE010B58CB0044660
:105A1C006846FFF70BFDE06800F006F808B900F0E7
:105A2C0031FA00200CB010BD08900023A16860680A
:105A3C006A46FFF7EFBC10B50446FFF7EFFC606059
:105A4C00002010BD0146886849680847F0B5074634
